:10000000F8FF0020110400000B3D00000B3D000034
:100010000B3D00000B3D00000B3D00000B3D0000C0
:100020000B3D00000B3D00000B3D00000B3D0000B0
:100030000B3D00000B3D00000B3D00000B3D0000A0
:100040000B3D00000B3D00000B3D00000B3D000090
:10040000FFFFFFFFFFFFFFFFFFFFFFFFFEFFFFFFFD
:1004100062B608F04FF9FEE780B500F08BFC02F001
:10042000FFFB00F051FD00F0D5FC00F0BAF800F041
:1004300022F8DFF8700A0088002804D1DFF88C0960
:100440000078002805D0012201218A2002F0E8FC72
:1004500004E0002201218A2002F0E2FC01F060FCAD
:1004600001F068FBDFF81C0CB0F91400002801D083
:1004700002F010F901BD10B4B8B0002100222A2307
:10048000180042286EDADFF8483933F91030DFF807
:10049000404914EB4004B4F902401B1B1CAC14EBA4
:1004A000800444F8A83CDFF8003A13EB4003B3F9AA
:1004B0000230DFF8F44934F910401B1B00AC14EB98
:1004C000800444F8A83CDFF8E03933F910309D2B64
:1004D00005DADFF8FC3833F91030042B04DA002396
:1004E0001A00002319003DE01CAB13EB800353F806
:1004F000A83C052B07DB1CAB13EB800353F8A83C8F
:10050000092B00DA491C02291BDB1CAB13EB80030F
:1005100053F8A83C1CAC14EB800454F8A44C1B1BEF
:10052000032B0CDB1CAB13EB800353F8A83C1CAC77
:1005300014EB800454F8AC4C1B1B032B12DA002381
:10054000190000AB13EB800353F8A83C052B07DB25
:1005500000AB13EB800353F8A83C092B00DA521CC4
:10056000401C8EE7022919DB022A17DBDFF85C3812
:100570001B78002B12D1DFF82C391B88002B0DD1F2
:10058000DFF828391B88002B08D1DFF824391B88B5
:10059000002B03D10123DFF8904B236038B010BC4F
:1005A0007047DFF810090088002804D1DFF8080937
:1005B0000088002863D0DFF804090088401CDFF8B9
:1005C000FC1808800120DFF8F0180880DFF8F00838
:1005D000B0F87E0000281AD1DFF8E408B0F88200F5
:1005E000002814D1DFF8DC08B0F87E0000280ED116
:1005F000DFF8D008B0F88200002808D1DFF8BC0886
:1006000000880B2803DB0120DFF8A0180880DFF842
:10061000AC080088972808DB0020DFF89C180880C9
:100620000020DFF88818088035E0DFF880080088AF
:10063000002830D0DFF88808B0F86E0000282AD0F3
:10064000DFF87C08B0F86C00002824D0DFF87408CC
:10065000B0F86E0000281ED1DFF86808B0F86C0012
:10066000002818D10020DFF8501808800020DFF89B
:100670003C1808800120DFF8101A08700BE00020F9
:10068000DFF8341808800020DFF8301808800020D8
:10069000DFF818180880DFF8F4090088002804D172
:1006A000DFF8EC09008800287AD0DFF8E809008834
:1006B000401CDFF8E01908800120DFF8D419088019
:1006C000DFF80008B0F8700000281AD1DFF8F4074E
:1006D000B0F87800002814D1DFF8E407B0F8700013
:1006E00000280ED1DFF8D807B0F87800002808D12C
:1006F000DFF8A00900880B2803DB0120DFF8B01722
:100700000880DFF890090088C92808DB0020DFF89E
:10071000801908800020DFF8981708804CE0DFF887
:1007200090070088002847D0DFF89807B0F86400E9
:10073000002841D0DFF88C07B0F8680000283BD0D3
:10074000DFF87C07B0F86400002835D1DFF87007C7
:10075000B0F8680000282FD1DFF8D009B0F8780091
:10076000602829DBDFF84007B0F98C00DFF8381784
:10077000B1F95A10401A32281EDADFF82C07B0F906
:100780006400962818DA0020DFF804190880002099
:10079000DFF81C1708800120DFF8941908800BE0AF
:1007A0000020DFF8EC1808800020DFF8E818088047
:1007B0000020DFF8FC160880DFF8CC08007800285D
:1007C00005D1DFF808060078002800F09380DFF8F4
:1007D00064090088401CDFF85C1908800020DFF8FD
:1007E000A81808700120DFF8E4150870DFF8440944
:1007F0000088292828DBDFF8CC06B0F87400002830
:1008000022D0DFF8C006B0F8700000281CD0DFF856
:10081000B406B0F87400002816D0DFF8A806B0F8C7
:100820007000002810D00120DFF82C1A08707FF02B
:100830000700DFF8281A08606920DFF8241A08602A
:100840000120DFF8201A0860DFF80C0A0078002881
:1008500006D0DFF8140A0088401CDFF80C1A088064
:10086000DFF8040A00881E2803DB0020DFF8F419F3
:100870000860DFF8F4090088652803DB6420DFF8EE
:10088000E8190880DFF8E0090088152842DBDFF866
:100890003406B0F8600000283CD1DFF82806B0F834
:1008A0006400002836D1DFF81806B0F8640000288C
:1008B00030D1DFF80C06B0F8600000282AD1DFF84C
:1008C0000006B0F87800002824D00020DFF8FC14DF
:1008D00008706920DFF8881908600020DFF87C19AB
:1008E00008600020DFF87C1908600020DFF8381865
:1008F00008600FE00020DFF8D41408700020DFF853
:10090000341808800020DFF8601908800020DFF824
:1009100048190870DFF818080088002805D1DFF8AA
:1009200084050088002800F09980DFF8400A0088DC
:10093000401CDFF8381A08800020DFF8F417088020
:100940000120DFF860150880DFF8200A00882928D8
:1009500028DBDFF85405B0F96C008D2822DBDFF8C6
:100960004805B0F970008D281CDBDFF85805B0F899
:100970007000002816D0DFF84C05B0F86C00002895
:1009800010D00120DFF8E01A08807FF00800DFF8BF
:10099000CC1808602320DFF8D81908600120DFF8A0
:1009A000C4180860DFF8C00A0088002806D0DFF805
:1009B000C4090088401CDFF8BC190880DFF8B409BE
:1009C00000881F2803DB0020DFF898180860DFF894
:1009D000A4090088652803DB6420DFF898190880E3
:1009E000DFF890090088292848DBDFF8D804B0F840
:1009F0005000002842D1DFF8CC04B0F854000028A1
:100A00003CD1DFF8BC04B0F85000002836D1DFF844
:100A1000B004B0F85400002830D1DFF8A804B0F8D2
:100A2000780000282AD0DFF89804B0F87800002871
:100A300024D10020DFF86C1408802320DFF830195F
:100A400008600020DFF8141808600020DFF8141890
:100A500008600020DFF8D01608600FE00020DFF803
:100A6000441408800020DFF8041908800020DFF813
:100A7000041908800020DFF8F0190880704780B55D
:100A8000012002F0A5FBDFF8E4090088DFF8F41587
:100A900088810020DFF8EC15C881DFF8D4090088D0
:100AA000DFF8E01548820020DFF8D8158882502052
:100AB000DFF8D01508702520DFF8C81588700320EE
:100AC000DFF8C015C8701420DFF8B815487105208C
:100AD000DFF8B01548700120DFF8A815087600206F
:100AE000DFF8A01588720020DFF8981548760020FE
:100AF000DFF8901581F826000020DFF8881548847B
:100B00000020DFF8801588840020DFF87815C861A0
:100B10000120DFF87015C8750020DFF8681581F82E
:100B200029000020DFF85C1581F82A000120DFF899
:100B3000541581F82B00DFF83C090088DFF84415D4
:100B400081F82C000020DFF83C1581F82D000120F1
:100B5000DFF8301581F82E000020DFF82815086333
:100B60000020DFF8201581F834000020DFF814158C
:100B700081F836000120DFF80C1581F835000020DF
:100B8000DFF8001581F837000020DFF8F81481F84D
:100B900038000020DFF8EC1481F839000020DFF87D
:100BA000E41481F83A000020DFF8D81481F83B0003
:100BB0000020DFF8D01481F83C000020DFF8C414D6
:100BC00081F83D000120DFF8BC14C872DFF8B404DE
:100BD00090F90B0001281AD10020DFF8A8148875BD
:100BE000012002F0F5FA0120DFF8981481F82B00BB
:100BF0000220DFF8901481F820000120DFF884142F
:100C000081F82E000120DFF87C1481F83C00DFF829
:100C1000740490F90B0002281AD10120DFF8641443
:100C20008875012002F0BFFA0020DFF8581481F81F
:100C30002B000020DFF84C1481F820000020DFF8A2
:100C4000441481F82E000020DFF8381481F83C00AD
:100C50001320DFF88C1908804FF47A60DFF88419CC
:100C6000088040F2D250DFF88019088040F6B83092
:100C7000DFF8781908800020DFF8F817088040F6C0
:100C8000B830DFF8EC1708800020DFF8E0170880A4
:100C90001420DFF85C1908804FF4FA50DFF854197B
:100CA00008804FF41670DFF8501908800020DFF834
:100CB0004C1908800020DFF848190880DFF8440943
:100CC000DFF844190860DFF84409DFF844190860C8
:100CD000DFF84009DFF840190860DFF83809DFF86D
:100CE0003C190860DFF83809DFF838190860DFF8C8
:100CF0003009DFF834190860DFF83009DFF83019FF
:100D00000860DFF83009DFF830190860DFF82C09D7
:100D1000DFF82C190860DFF82C09DFF82C190860BF
:100D2000DFF82809DFF8281908600020DFF8241907
:100D3000086001BDDFF84C1309780800DFF84413A0
:100D4000897800B209B2884217DB0021204A00B23C
:100D500022F810109F21544A00B222F8101050219E
:100D6000DFF8F42800B222F810105021DFF8EC2848
:100D700000B222F81010401EE0E70021DFF8042343
:100D800011710021DFF8FC2291710021DFF8F422BB
:100D9000D1710021DFF8EC2211720021DFF8E4228A
:100DA00051720021DFF8DC2282F827100021DFF8E1
:100DB000D42282F828100021DFF8C82282F83A10E5
:100DC0000021DFF8C02282F83B10704727B6FF1FD2
:100DD0005CAFFF1F3A48B0F86E00002821D03848B9
:100DE000B0F8720000281CD03548B0F87800002810
:100DF00017D13448B0F86E00002812D13148B0F84D
:100E0000720000280DD1C948B0F87800602808DBCE
:100E1000C648B0F878009F2803DA012025490880E9
:100E200002E00020234908802648B0F86C00002822
:100E300033D02448B0F8680000282ED02148B0F8FC
:100E40007E00002829D11E48B0F86C00002824D16B
:100E50001B48B0F8680000281FD1B448B0F86E00F5
:100E600060281ADB1048B0F982000F49B1F95A1016
:100E7000401A152811DB0C48B0F982000A49B1F973
:100E80005A10401A322808DA0748B0F96400962848
:100E900003DA01207D49088002E000207B490880B8
:100EA00070470000F8B5FF1F4CB0FF1FF4B5FF1FDF
:100EB000ECB5FF1FEEB5FF1FF0B5FF1FF2B5FF1F2A
:100EC0000CB4FF1F1CB3FF1F10B500246D48007841
:100ED0006C494978401A411C09B26A48007800B24E
:100EE00000F04AFADFF8201C088000200400782C6B
:100EF0000BDA0120DFF8141C21F814000120DFF8C0
:100F0000101C21F81400641CF1E7DFF8FC0BB0F9A9
:100F1000000010F1010F03D100205A490871B0E020
:100F2000DFF8340757490978564A5278891A10EB86
:100F30004100DFF8D41B09884180DFF820075149C0
:100F40000978504A5278891A10EB4100DFF8B81B33
:100F5000098841804B4800784A494978401ADFF8AF
:100F6000B41B0880DFF8AC0BB0F900004549897864
:100F700009B288427CDBDFF8E806DFF8981BB1F99C
:100F80000010A02211FB0200DFF87C1BB1F9001059
:100F9000085C00286CD0DFF8700BB0F90010DFF8A7
:100FA000740BB0F9000000F0C7F8DFF8680BB0F977
:100FB000000000F057FBDFF8501B0880DFF8580BEB
:100FC000DFF8501BB1F9001030F91100DFF84C1BAD
:100FD000DFF8402BB2F9002031F91210401A5349C2
:100FE000DFF8302BB2F9002021F81200DFF82C0BCB
:100FF000DFF8201BB1F9001030F911000B2809DAD5
:101000000120DFF8081BDFF80C2BB2F9002021F8D3
:10101000120008E00020DFF8F41ADFF8F82AB2F92D
:10102000002021F81200DFF8F00ADFF8E81AB1F921
:10103000001030F911009E2809DB0120DFF8D01ADA
:10104000DFF8D02AB2F9002021F8120008E00020D1
:10105000DFF8BC1ADFF8BC2AB2F9002021F8120030
:10106000DFF8B00A0088401EDFF8A81A088079E788
:10107000012004490871DFF89C0A0088401C0149DE
:10108000887110BD00B5FF1F26B6FF1FE6B5FF1F14
:10109000E8B5FF1FEAB5FF1F70B504000E0015008C
:1010A00024B236B2A01B02F0C1F8012802D13000F0
:1010B00000B238E036B206FA84F0022190FBF1F07B
:1010C000DFF89C15A02215FB0211405C00280DD111
:1010D0002A0012B236B206FA84F0022190FBF1F136
:1010E00009B2200000B2FFF7D7FF1CE036B206FAC3
:1010F00084F0022190FBF1F0DFF86415A02215FBCB
:101100000211405C01280DD12A0012B2310009B24F
:1011100036B206FA84F0022390FBF3F000B2FFF738
:10112000BBFF00E0002070BD58AFFF1F3CAEFF1FAB
:10113000F6B5FF1F00B6FF1F38B504000D002900EB
:1011400009B2200000B200F007F8290009B220001F
:1011500000B200F08BF831BD38B504000D00DFF8A7
:10116000C00905800020DFF8BC190870DFF8B0095D
:10117000B0F90000002806D10020DFF8A01924B241
:1011800021F8140066E0DFF89809B0F9000009289A
:101190004BDBDFF88C0900880838DFF884190880F9
:1011A000DFF8BC04A02114FB0100DFF87419B1F9C9
:1011B0000010085C002816D1220012B2DFF8600986
:1011C000B0F90010DFF858090088C01D00B2FFF721
:1011D00063FFDFF8481924B221F814000120DFF87A
:1011E0004419087005E0DFF83809B0F90000092853
:1011F000CFDADFF82C09B0F9000009282ADADFF885
:10120000240990F90000002824D1220012B2002104
:10121000DFF80C090088083000B2FFF73DFFDFF867
:10122000FC1824B221F8140014E0DFF8F408B0F937
:10123000000009280EDA220012B20021DFF8E008CF
:101240000088083000B2FFF727FFDFF8D01824B27B
:1012500021F8140031BD000028B6FF1F2CAFFF1F7E
:10126000B00BFF1FFCB4FF1F02B6FF1F38B5040010
:101270000D00DFF8B40805800020DFF8B018087012
:10128000DFF8A408B0F900009F2806D19F20DFF8FE
:10129000881824B221F8140066E0DFF88C08B0F951
:1012A000000097284BDADFF8800800880830DFF864
:1012B00078180880DFF8A803A02114FB0100DFF8EC
:1012C0006818B1F90010085C002816D1220012B28B
:1012D000DFF85408B0F90010DFF84C080088C01F90
:1012E00000B2FFF7D9FEDFF8301824B221F814005D
:1012F0000120DFF83818087005E0DFF82C08B0F995
:1013000000009728CFDBDFF82008B0F9000097280D
:101310002ADBDFF8180890F90000002824D1220009
:1013200012B29F21DFF800080088083800B2FFF7EA
:10133000B3FEDFF8E41724B221F8140014E0DFF85C
:10134000E807B0F9000097280EDB220012B29F21B7
:10135000DFF8D4070088083800B2FFF79DFEDFF8F9
:10136000B81724B221F8140031BD0000FCB5FF1FEE
:10137000AC0BFF1FFEB5FF1FF8B504000D000026E3
:101380005027DFF8AC070470DFF8A407007800B23C
:101390002DB2A8423CDBB248DFF894170978A022AE
:1013A00002FB0100FFB2385C002802D15FF0FF3081
:1013B00059E0AB48DFF878170978A02202FB01005A
:1013C000FFB2385C012811D1FFB2390009B2DFF851
:1013D0006007007800B2FFF7AFFE290009B2DFF81E
:1013E0005007007800B200F047F80700FFB2782FEE
:1013F00001DB7827FFE7FFB2292F01DA2827FFE773
:10140000DFF82C070078401EDFF824170870BBE7D0
:10141000DFF81C070470DFF81807007800B22DB25F
:10142000A8420EDB8C48DFF80817097830F8110065
:101430008619DFF8FC060078401EDFF8F416087005
:10144000E9E736B2300001F0F5FE060024B22DB215
:10145000601B401C01F0EEFE0100300001F014FFA3
:1014600001F090FF00B2F2BDFAB5FF1FD8B5FF1F23
:10147000D6B5FF1FD4B5FF1F10B4DFF8A02600B209
:1014800032F91020002A18D0DFF88C2600B232F989
:1014900010209F2A11D0DFF8842600B232F91020E4
:1014A000DFF8743600B233F910309A18022392FB39
:1014B000F3F2694B00B223F81020DFF8602600B287
:1014C00032F91020002A1ED0DFF84C2600B232F983
:1014D00010209F2A17D1DFF8442600B232F81020DE
:1014E000DFF8283800B209B2441A33F814309A18D9
:1014F000594B00B223F81020DFF81428127A521C3E
:10150000DFF80C381A72DFF8142600B232F9102016
:10151000002A1ED1DFF8002600B232F910209F2ADF
:1015200017D0DFF8F42500B232F81020DFF8DC37EE
:1015300000B209B2441A33F81430D21A464B00B242
:1015400023F81020DFF8C827D279521CDFF8C03703
:10155000DA71DFF8C82500B232F91020002A19D15B
:10156000DFF8B42500B232F910209F2A12D15022A0
:10157000394B00B223F81020DFF89427127A521C5E
:10158000DFF88C371A72DFF88827D279521CDFF81F
:101590008037DA71304A00B232F91020782A01DB44
:1015A000782203E02C4A00B232F910202A4B00B214
:1015B00023F81020284A00B232F91020292A01DA33
:1015C000282203E0244A00B232F91020224B00B254
:1015D00023F81020204A00B232F9100010BC7047E6
:1015E000CCB5FF1FCEB5FF1FD0B5FF1FD2B5FF1F73
:1015F000DAB5FF1FDCB5FF1FDEB5FF1FE0B5FF1F2B
:10160000E2B5FF1F0000B0403C10FF1F00007A440D
:101610004010FF1F0000C8424410FF1F4810FF1F6A
:10162000000020424C10FF1F5010FF1F0000A0417F
:101630005410FF1F0000B4425810FF1F0000484222
:101640005C10FF1F0000A0406010FF1F00009643C9
:101650006410FF1F6810FF1F3CB1FF1F2CB2FF1F5B
:101660003C23FF1FDFF8B41400B231F91010002939
:1016700000F0B180DFF8A01400B231F910109F29FA
:1016800000F0A980DFF8941400B231F91010DFF8EF
:10169000882400B232F910205118022291FBF2F195
:1016A000DFF8702600B212EB4002B2F90220891A6C
:1016B00000293BD4DFF8641400B231F91010DFF8D0
:1016C000582400B232F910205118022291FBF2F195
:1016D000DFF8402600B212EB4002B2F90220891A6C
:1016E000012901DB012115E0DFF8301400B231F9E6
:1016F0001010DFF8242400B232F910205118022211
:1017000091FBF2F1DFF80C2600B212EB4002B2F9C5
:101710000220891ADFF8FC2500B212EB4002528841
:101720008918DFF8F02500B222F81010DFF8EC136A
:1017300000B231F91010DFF8E02300B232F91020C6
:101740005118022291FBF2F1DFF8C82500B212EB2A
:101750004002B2F90220891A00293CD5DFF8BC13F7
:1017600000B231F91010DFF8B02300B232F91020C6
:101770005118022291FBF2F1DFF8982500B212EB2A
:101780004002B2F90220891A002902D55FF0FF3128
:1017900015E0DFF8881300B231F91010DFF8782374
:1017A00000B232F910205118022291FBF2F1DFF859
:1017B000642500B212EB4002B2F90220891ADFF868
:1017C000542500B212EB400252888918DFF84425F4
:1017D00000B222F81010DFF8441300B231F91010F3
:1017E000002970D0DFF8301300B231F910109F29B2
:1017F00069D1DFF8281300B231F91010DFF81C238B
:1018000000B212EB4002B2F90220891A00292AD450
:10181000DFF8081300B231F91010DFF8002300B22E
:1018200012EB4002B2F90220891A012901DB0121E1
:101830000CE0DFF8E81200B231F91010DFF8DC221A
:1018400000B212EB4002B2F90220891ADFF8C42478
:1018500000B212EB400252888918DFF8B82400B2B7
:1018600022F8101026E000B2022190FBF1F202FBF8
:101870001102002A0AD1DFF89C1400B211EB4001DA
:101880004988DFF8902400B222F8101000B202213B
:1018900090FBF1F202FB1102012A0BD1DFF8741464
:1018A00000B211EB40014988491CDFF8682400B2FE
:1018B00022F81010DFF8581491F82810491CDFF8AE
:1018C000502482F82810DFF8541200B231F91010B9
:1018D000002940F0AF80DFF8401200B231F910105B
:1018E0009F2900F0A780DFF8301200B231F9101004
:1018F000DFF8242200B212EB4002B2F90220891A6A
:1019000001292BDADFF8101200B231F91010DFF8DC
:10191000082200B212EB4002B2F90220891A002913
:1019200002D55FF0FF310CE0DFF8EC1100B231F9C5
:101930001010DFF8E42100B212EB4002B2F90220ED
:10194000891ADFF8D02300B212EB400252888918BE
:10195000DFF8C02300B222F8101062E000B20221CA
:1019600090FBF1F202FB1102002A0AD1DFF8A41366
:1019700000B211EB40014988DFF8982300B222F849
:10198000101000B2022190FBF1F202FB1102012AB9
:101990000BD1DFF8801300B211EB40014988491EDA
:1019A000DFF8702300B222F81010DFF8641391F909
:1019B0000B10022935D1DFF8581391F8371001299F
:1019C00005D0DFF84C1391F83810012929D1DFF840
:1019D0004C1100B231F91010DFF8402100B212EBC7
:1019E0004002B2F90220891A012901DB01210CE031
:1019F000DFF8281100B231F91010DFF8202100B211
:101A000012EB4002B2F90220891ADFF8082300B273
:101A100012EB400252888918DFF8F82200B222F84F
:101A20001010DFF8EC1291F82710491CDFF8E022C3
:101A300082F82710DFF8E41000B231F91010002905
:101A400035D1DFF8D41000B231F910109F292ED112
:101A5000DFF8C01200B211EB40014988DFF8B42270
:101A600000B222F81010DFF8A81291F82810491CD3
:101A7000DFF89C2282F82810DFF8941291F82710E2
:101A8000491CDFF88C2282F82710DFF8841291F8C5
:101A9000271014290BDBDFF8781291F8281014298D
:101AA00005DB5021DFF86C2200B222F81010DFF8BD
:101AB000641200B231F910109F2901DB9F2104E06C
:101AC000DFF8501200B231F91010DFF8482200B2EE
:101AD00022F81010DFF83C1200B231F91010012981
:101AE00001DA002104E0DFF82C1200B231F9101005
:101AF000DFF8202200B222F81010DFF8181200B22E
:101B000031F9100070470000A80DFF1F1CB3FF1F24
:101B10000CB4FF1F04B6FF1F4CB0FF1F5CAFFF1FCC
:101B200006B6FF1F29B6FF1F08B6FF1F2AB6FF1F04
:101B30002BB6FF1F764890F83700002859D174481B
:101B400090F83800002854D1714890F91800012805
:101B50000CD16F4890F83A00012807D16C4890F8F2
:101B60003B00012802D1022069490876684890F9B3
:101B70001800022819D1664890F83A00022814D1BA
:101B8000634890F83B0002280FD103206049087693
:101B90005F48808A401C5E4988825D48B0F9140025
:101BA000082802DB01205A498882594890F9180018
:101BB00003280CD1564890F83A00012807D1544820
:101BC00090F83B00012802D108205149087650487E
:101BD00090F9180008280CD14D4890F83A000228D6
:101BE00007D14B4890F83B00022802D10120484918
:101BF0000876474890F83700012840D1444890F9CA
:101C00001800032829D1002041498979462924DA7E
:101C10005021080000B24E281FDB404900B231F9C4
:101C200010103E4A00B212EB400232F9102CD21EC4
:101C3000914210DA394900B231F91010374A00B236
:101C400012EB4002B2F91020D21E914203DA0421B5
:101C50002F4A117601E0401EDCE72D4890F918006C
:101C600004280CD12A4890F83A00012807D12848C6
:101C700090F83B00022802D1052025490876244827
:101C800090F83800012840D1214890F91800032825
:101C900029D100201E498979462924DA50210800DB
:101CA00000B24E281FDB1C4900B211EB400131F994
:101CB000101CC91C184A00B232F91020914210DAE7
:101CC000154900B211EB4001B1F91010C91C124ABC
:101CD00000B232F91020914203DA06210C4A117643
:101CE00001E0401EDCE70A4890F9180006280CD1F4
:101CF000074890F83A00022807D1054890F83B00C1
:101D0000012802D10720024908767047B40BFF1F53
:101D100000B5FF1F3CB1FF1F5CAFFF1F4CB0FF1FA2
:101D2000F8B5DFF848080079002832D10020DFF844
:101D30003C18C861DFF840080088401CDFF83818FC
:101D40000880DFF83408B0F900006E2820DB00209E
:101D5000DFF8181881F82000002343F698220421A8
:101D6000002001F0BDFB002343F69822052100204E
:101D700001F0B6FB002343F698220621002001F073
:101D8000AFFB002343F698220721002001F0A8FBB7
:101D9000A9E3DFF8D81709780800DFF8A018097858
:101DA000002926D0DFF898180968152921DADFF80C
:101DB00090180968491CDFF8882811604121080043
:101DC00000B23228C0F20E81DFF8A81700B231F855
:101DD0001010DFF8A027B2F88220891ADFF86428F3
:101DE00012685118DFF8602800B222F81010401E67
:101DF000E6E7DFF858180988002926D0DFF84018F0
:101E00000968152921DADFF838180968491CDFF854
:101E1000302811604121080000B23228C0F2E2806F
:101E2000DFF82C180968DFF84827B2F88220891AF1
:101E3000DFF83C2700B232F810205118DFF80828EC
:101E400000B222F81010401EE6E7DFF8201791F8E4
:101E5000371001291AD1DFF81417897900B209B2B5
:101E60008842C0F2BF80DFF80C1700B231F81010C2
:101E7000DFF8E02700B232F81020891A0839DFF8BD
:101E8000C82700B222F81010401EE4E7DFF8DC1685
:101E900091F8381001291AD1DFF8D016897900B2EB
:101EA00009B28842C0F29E80DFF8C41600B231F851
:101EB0001010DFF8A02700B232F8102051180831B6
:101EC000DFF8842700B222F81010401EE4E7DFF8A4
:101ED0009C16897900B209B28842C0F28380DFF88B
:101EE000901600B231F91010002919D0DFF88416CD
:101EF00000B231F910109F2912D0DFF8741600B229
:101F000031F91010DFF86C2600B232F910205118A8
:101F1000022291FBF2F1DFF8302700B222F8101014
:101F2000DFF84C1600B231F91010002916D0DFF896
:101F3000441600B231F910109F290FD1DFF8301686
:101F400000B231F81010DFF8102700B232F810207C
:101F50005118DFF8F42600B222F81010DFF810163E
:101F600000B231F91010002916D1DFF8081600B2BE
:101F700031F910109F290FD0DFF8F81500B231F8B1
:101F80001010DFF8D42600B232F81020891ADFF8DA
:101F9000B82600B222F81010DFF8D41500B231F9DB
:101FA0001010002910D1DFF8CC1500B231F9101053
:101FB0009F2909D1DFF8A41600B231F81010DFF81C
:101FC000882600B222F81010DFF89416A02210FB29
:101FD0000211DFF8742600B232F9102000235354A6
:101FE000401E74E7DFF8840580791F2803DA1E207D
:101FF000DFF878158871002400250026DFF83C06FC
:102000000078002804D1DFF84406008800280BD0AF
:10201000DFF82C0600681528C0F29180DFF844062E
:102020000068002840F08B80DFF81C26DFF83C05B4
:102030008079DFF838150978491CDFF830359B794D
:10204000C91A032391FBF3F10818411E09B2DFF806
:102050001C05807900B200F047FA0400DFF8E8259B
:10206000DFF808058079DFF804150978491CDFF8E6
:10207000FC349B79C91A032391FBF3F109B249009F
:102080000818411E09B2DFF8E4048079DFF8DC3477
:102090001B785B1CDFF8D474BF79DB1B032793FB31
:1020A000F7F3181800B200F01FFA0500DFF89825C2
:1020B000DFF8B804017809B2DFF8B0048079DFF8FE
:1020C000AC341B785B1CDFF8A474BF79DB1B5B00AE
:1020D000032793FBF7F3181800B200F005FA060087
:1020E000DFF884050168200001F0F2FB0700DFF84B
:1020F0007C050168280001F0EBFB0100380001F0CD
:1021000053FC0700DFF868050168300001F0E0FBD0
:102110000100380001F048FC0700DFF85805B0F96D
:10212000000001F087F80100380001F07FFCDFF8C3
:10213000481501F0A9F8DFF83414C861D3E1DFF8DD
:1021400024050068012840F09F80DFF830050088F2
:102150001F2805DBDFF8280500881E2880F2948000
:10216000DFF8E4244121322000F0BEF90400DFF85A
:102170000815200001F0ACFB0700DFF8F804B0F907
:10218000000001F057F80100380001F04FFCDFF8C3
:10219000E81401F079F8F549C861DFF8E80400684F
:1021A000DFF8E014496801F0FFFBDFF8D814896814
:1021B00001F0FAFBDFF8CC14C96801F0F5FBDFF899
:1021C000C414096901F0F0FBDFF8B814496901F0A3
:1021D000EBFBDFF8B014896901F0E6FBDFF8A4142B
:1021E000C96901F0E1FBDFF89C14096A01F0DCFB2E
:1021F000DFF89014496A01F0D7FBDFF88814896A88
:1022000001F0D2FBDFF87C14C96A01F0CDFBDFF8E6
:102210007414096B01F0C8FBDFF86814496B01F016
:10222000C3FBDFF86014896B01F0BEFBDFF85414C8
:10223000C96B01F0B9FBDFF84C14096C01F0B4FB79
:10224000DFF84014496C01F0AFFBDFF83814896CFB
:1022500001F0AAFBDFF82C14C96C01F0A5FBDFF834
:10226000281401F011F85FF07E5101F031FB0700F6
:10227000BE48C069002101F02BFB0100380001F0CD
:1022800093FBBA49C8612EE1DFF8B003007800285B
:1022900000F09580DFF8B0234121322000F024F9CE
:1022A0000400DFF8D413200001F012FB0700DFF870
:1022B000C403B0F9000000F0BDFF0100380001F0D8
:1022C000B5FBDFF8B41300F0DFFFA849C861DFF801
:1022D000B403806CDFF8AC13C864DFF8A803406C6B
:1022E000DFF8A0138864DFF89C03006CDFF8941318
:1022F0004864DFF89003C06BDFF888130864DFF8E8
:102300008403806BDFF87C13C863DFF87803406BCD
:10231000DFF870138863DFF86C03006BDFF8641379
:102320004863DFF86003C06ADFF858130863DFF81A
:102330005403806ADFF84C13C862DFF84803406A30
:10234000DFF840138862DFF83C03006ADFF83413DB
:102350004862DFF83003C069DFF828130862DFF84D
:1023600024038069DFF81C13C861DFF81803406993
:10237000DFF810138861DFF80C030069DFF804133D
:102380004861DFF80003C068DFF8F8120861DFF881
:10239000F4028068DFF8EC12C860DFF8E8024068F9
:1023A000DFF8E0128860DFF8DC020068DFF8D412A2
:1023B00048606E48C069DFF8CC12086093E0DFF82F
:1023C00088224121322000F08FF80400DFF8A812A3
:1023D000200001F07DFA0700DFF89802B0F9000054
:1023E00000F028FF0100380001F020FBDFF8881220
:1023F00000F04AFF5D49C861DFF88802806CDFF8B1
:102400008412C864DFF87C02406CDFF878128864BC
:10241000DFF87002006CDFF86C124864DFF86402C9
:10242000C06BDFF860120864DFF85802806BDFF8D9
:102430005412C863DFF84C02406BDFF8481288631F
:10244000DFF84002006BDFF83C124863DFF834022B
:10245000C06ADFF830120863DFF82802806ADFF80C
:102460002412C862DFF81C02406ADFF81812886282
:10247000DFF81002006ADFF80C124862DFF804028D
:10248000C069DFF800120862DFF8F8018069DFF840
:10249000F411C861DFF8EC014069DFF8E8118861E8
:1024A000DFF8E0010069DFF8DC114861DFF8D401F2
:1024B000C068DFF8D0110861DFF8C8018068DFF874
:1024C000C411C860DFF8BC014068DFF8B81188604B
:1024D000DFF8B0010068DFF8AC1148602348C0693C
:1024E000DFF8A0110860F1BDF8B504000D0016007A
:1024F0000020DFF8981108602A0012B2210009B20A
:10250000300000F07BF8601CDFF8841108802DB2E9
:10251000681EDFF87C11B1F90010884214DBDFF887
:102520006C010068DFF86811B1F9001036F911107C
:102530004018DFF858110860DFF854010088401C8B
:10254000DFF84C110880E2E7DFF84001006800F096
:1025500071FE07002DB224B2281B401E00F06AFE57
:102560000100380000F090FEF2BD000000B5FF1F32
:102570005CAFFF1F4CB0FF1F0AB6FF1F10B4030073
:10258000080000B233F91040210000B212B29042AC
:102590002EDA00B212B2904207DA12B233F91240C8
:1025A00009B28C4201DB521EF3E700B212B2904234
:1025B00006DA12B233F8124000B223F81040401C81
:1025C00000B212B2904207DA00B233F9104009B2F9
:1025D000A14201DB401CF3E700B212B29042D4DA10
:1025E00000B233F8104012B223F81240521ECCE76A
:1025F00000B223F8101000B210BC7047F8B5040008
:102600000D0016002DB236B2B54215DA320012B204
:10261000290009B22000FFF7B1FF07007A1E12B2AD
:10262000290009B22000FFF7E9FF320012B2791C3D
:1026300009B22000FFF7E2FFF1BD000027B6FF1F3F
:102640002CAFFF1FB00BFF1F2CB2FF1FF8B5FF1FF1
:10265000AC0BFF1FB80CFF1FC80BFF1F3CB1FF1FC7
:102660003C23FF1FFCB4FF1F4C10FF1F5010FF1F27
:102670005410FF1FDCB5FF1F0000C842FEB5FF1F4E
:1026800002B6FF1F30AFFF1F0000A04140B5FF1F83
:102690000CB6FF1F10B5DFF8840590F8350001284F
:1026A00040F0BB82DFF87405B0F91200DFF86C155A
:1026B000898A491E0841C00740F1AF82DFF85C05F6
:1026C00090F83700002834D1DFF8500590F8380032
:1026D00000282ED1DFF8440590F91800032828D1EE
:1026E000DFF818070078401CDFF810170870DFF8D3
:1026F0000C07007802281CD1DFF82005C0690021F2
:1027000001F008FA05D80120DFF8101581F838002B
:102710000BE0DFF80805C069002101F00DFA04D8CC
:102720000120DFF8F81481F837000020DFF8CC161C
:102730000870DFF8E80490F83700012840F046817F
:10274000DFF8D80490F90B00012840F0A080DFF8F2
:10275000CC0490F91800052812D1DFF8C00490F8D5
:10276000390000280CD10320DFF8B01481F82000D4
:10277000012000F018FD0120DFF8A01481F83900D5
:10278000DFF8980490F83900012840F08080DFF8E5
:102790008C0490F92000022879D10020DFF860161F
:1027A000097800290FD1DFF8741491F83A10012943
:1027B00009D1DFF8681491F83B10012903D10121F8
:1027C000DFF83C261170DFF838160978012911D19D
:1027D000DFF8481491F83A1002290BD1DFF83C14C5
:1027E00091F83B10022905D10021DFF81426117061
:1027F00001210800C0B2012849D10021DFF80026DC
:1028000011700121DFF8142411760021DFF80C2467
:1028100082F837100021DFF8042482F838100021F4
:10282000DFF8F82382F839100221DFF8F023D172A3
:10283000DFF8E81391F83D10012909D10021DFF8F4
:10284000DC2391750021DFF8D42382F83D1003E0EA
:102850000121DFF8C82391750121DFF8C023D1756C
:10286000DFF8B81391F82D1001290AD10121DFF802
:10287000AC2382F82B100021DFF8A02382F82D1062
:1028800004E00021DFF8942382F82B10C5E1DFF883
:102890008C0390F90B00022840F09880DFF87C034D
:1028A00090F83900002834D1002000215022110076
:1028B00009B2DFF8682392790832914222DBDFF80F
:1028C000442509B232F91120DFF8383509B213EB8B
:1028D000410333F9103CDB1E9A4211DADFF824255C
:1028E00009B232F91120DFF81C3509B213EB4103AC
:1028F000B3F91030DB1E9A4202DA0122100001E027
:10290000491ED5E7C0B2012803D10122C34B83F889
:102910003920C24890F83900012857D10024DFF847
:10292000E8040078012815D0BC4890F83A00012846
:1029300010D1BA4890F83B0002280BD10120DFF8F3
:10294000C81408707321012000F020FC73210120BD
:1029500000F01CFCDFF8B004007801280FD1AF486C
:1029600090F83A0002280AD1AC4890F83B000228BF
:1029700005D10020DFF89014087001200400E4B2B3
:10298000012C23D10020DFF8801408700120A34916
:1029900008760020A14981F8370000209F4981F87E
:1029A000380000209D4981F8390001209B49C872F8
:1029B00000209A49887501209849C87501209749D7
:1029C00081F82B00012000F003FC26E1934890F8E9
:1029D0003800012840F02181904890F90B0001282F
:1029E00040F087808D4890F9180007280FD18B4858
:1029F00090F8390000280AD10320884981F8200086
:102A0000012000F0D0FB0120844981F8390083487F
:102A100090F8390001286CD1804890F920000228F4
:102A200067D10020DFF8E413097800290DD17B4934
:102A300091F83A10012908D1784991F83B10012901
:102A400003D10121DFF8C4231170DFF8C013097826
:102A500001290FD1714991F83A1002290AD16F4921
:102A600091F83B10022905D10021DFF8A023117055
:102A700001210800C0B201283BD10021DFF88C23DE
:102A800011700121654A11760021644A82F83710DD
:102A90000021624A82F838100021604A82F8391019
:102AA00002215E4AD1725D4991F83D10012907D19A
:102AB00000215A4A91750021584A82F83D1002E0DF
:102AC0000121564A91750121544AD175534991F813
:102AD0002D10012908D10121504A82F82B10002124
:102AE0004E4A82F82D1003E000214C4A82F82B1048
:102AF00093E04A4890F90B00022840F08E80474846
:102B000090F83900002830D1002000215022110017
:102B100009B2424A9279083291421FDBDFF8F02273
:102B200009B212EB410232F9102CD21CB84B09B297
:102B300033F911309A420FDAB54A09B212EB410269
:102B4000B2F91020D21CB24B09B233F911309A42BB
:102B500002DA0122100001E0491ED9E7C0B20128C3
:102B600003D101222D4B83F839202C4890F83900ED
:102B7000012852D10024A7480078012814D0274802
:102B800090F83A0002280FD1244890F83B00012821
:102B90000AD101209F4908707321012000F0F6FA44
:102BA0007321012000F0F2FA9A48007801280ED132
:102BB0001A4890F83A00022809D1184890F83B00CA
:102BC000022804D100209349087001200400E4B2D7
:102BD000012C22D100208F49087001200F4908766E
:102BE00000200E4981F8370000200C4981F8380098
:102BF00000200A4981F8390001200849C8720020E4
:102C00000649887501200549C8750120034981F8E6
:102C10002B00012000F0DCFAFFE710BD00B5FF1F1C
:102C2000002000217722100000B2732836DB7A4A98
:102C3000A02310FB032292F82820002A05D1282285
:102C4000734B00B223F8102026E02822110009B2AD
:102C5000012919DB704AA02310FB032209B28A5C08
:102C6000012A0FD16C4AA02310FB032209B28A1853
:102C700012F8012C002A05D14A1E654B00B223F838
:102C8000102001E0491EE2E709B2002904D1002228
:102C90005F4B00B223F81020401EC5E777221000DA
:102CA00000B2732835DB5C4AA02310FB032292F8A4
:102CB0007820002A05D17822524B00B223F8102048
:102CC00025E07822110009B29F2918DA524AA02380
:102CD00010FB032209B28A5C012A0ED14E4AA023BE
:102CE00010FB032209B28A185278002A05D14A1C27
:102CF000444B00B223F8102001E0491CE3E709B27D
:102D00009F2904D19F223F4B00B223F81020401E80
:102D1000C6E73F4AB2F9EE20002A17D13C4AB2F981
:102D2000EC20002A12D13A4AB2F9EA20002A0DD149
:102D3000374AB2F9E820002A08D1354AB2F9E6202C
:102D4000002A03D10122354B83F83A20304AB2F9E8
:102D5000EE20002A17D02E4AB2F9EC20002A12D019
:102D60002B4AB2F9EA20002A0DD0294AB2F9E8200C
:102D7000002A08D0264AB2F9E620002A03D002220F
:102D8000264B83F83A201F4AB2F9EE209F2A17D12A
:102D90001C4AB2F9EC209F2A12D11A4AB2F9EA2051
:102DA0009F2A0DD1174AB2F9E8209F2A08D1154A67
:102DB000B2F9E6209F2A03D10122184B83F83B2069
:102DC000104AB2F9EE209F2A17D00E4AB2F9EC2031
:102DD0009F2A12D00B4AB2F9EA209F2A0DD0094A45
:102DE000B2F9E8209F2A08D0064AB2F9E6209F2AC5
:102DF00003D00222094B83F83B2070472CB6FF1FFB
:102E00002DB6FF1F4CB0FF1F2EB6FF1F2FB6FF1FA2
:102E10005CAFFF1F30B6FF1F3C23FF1F00B5FF1F35
:102E200070B504000D0016004FF480712000C0B290
:102E300000F094FE6DB2002D11D14148E4B2611151
:102E400050F821003E49E4B2621151F8221049695C
:102E5000012214F01F039A409143416136E0384843
:102E6000E4B2611150F821003549E4B2621151F821
:102E700022104969012214F01F039A401143416155
:102E8000F6B2002E11D12E48E4B2611150F82100A3
:102E90000068012114F01F02914088432849E4B2E0
:102EA000621151F82210086010E02548E4B2611167
:102EB00050F821000068012114F01F0291400843DE
:102EC0001F49E4B2621151F82210086070BD10B5BC
:102ED00004001B48E4B2611150F82100406914F06D
:102EE0001F01C840C00703D47B21164800F0A3FE91
:102EF0001348E4B2611150F82100012114F01F02BF
:102F00009140C16010BD10B504000D48E4B26111DC
:102F100050F82100406914F01F01C840C00703D5D4
:102F20008C21084800F087FE0548E4B2611150F892
:102F30002100006914F01F01C84010F0010010BD0D
:102F4000240BFF1F10890000012110F01F02914087
:102F5000DFF8B82240B2430942F82310704701213C
:102F600010F01F029140DFF8A82240B2430942F856
:102F7000231070472DE9F84304000D0064B2002CC3
:102F800008D0022C2CD018D3042C4FD03BD3052CC6
:102F90005FD071E0DFF87C02006850F48060DFF8F9
:102FA000741208604FF440710F2000F0D7FD4FF409
:102FB00040710E2000F0D2FD5EE0DFF8580200689C
:102FC00050F40060DFF84C1208604FF44071432069
:102FD00000F0C4FD4FF44071442000F0BFFD4BE011
:102FE000DFF83002006850F48050DFF828120860E3
:102FF0004FF44071632000F0B1FD4FF44071622046
:1030000000F0ACFD38E0DFF80C02006850F400502E
:10301000DFF8001208604FF44071502000F09EFD70
:103020004FF44071512000F099FD25E0DFF8E801F0
:10303000006850F48060DFF8E01108604FF44071E0
:10304000992000F08BFD4FF44071982000F086FD30
:1030500012E0DFF8C401006850F40060DFF8B81136
:1030600008604FF44071892000F078FD4FF4407102
:10307000882000F073FDFFE7DFF8A00164B250F88C
:103080002400C07810F0F300DFF8901164B251F81A
:103090002410C870DFF8840164B250F824008078EE
:1030A000DFF8781164B251F82410887064B2002CF3
:1030B00002D064B2012C07D1DFF8640100684FF43C
:1030C0007A714843814606E0DFF8580100684FF402
:1030D0007A71484381462801B9FBF0F00600B6B288
:1030E000B6F5005F02DB41F6FF700600B9FBF5F0B4
:1030F000B6B2B0EB06100700BFB2202F03DBDC2115
:10310000494800F098FD454864B250F82400007822
:1031100010F0E0008046B6B2300A10F01F0050EA0E
:1031200008003E4964B251F8241008703B4864B26C
:1031300050F824004670394864B250F82400807A70
:1031400010F0E000804617F01F0050EA08003349F5
:1031500064B251F824108872304864B250F82400E8
:10316000007C50F088002D4964B251F82410087496
:103170002A4864B250F82400C07850F00C00274967
:1031800064B251F82410C870BDE8F183234A40B2FC
:1031900052F8202012791206F8D5204A40B252F88F
:1031A0002020D171704710B504001C4864B250F85B
:1031B0002400C07850F02000184964B251F824105F
:1031C000C87064B260002D3040B2FFF7BDFE10BD84
:1031D00010B50400114864B250F82400C07810F013
:1031E000DF000E4964B251F82410C8700B4864B275
:1031F00050F82400C078C021084205D164B26000B4
:103200002D3040B2FFF7ABFE10BD000000E100E042
:1032100080E100E03480044028800440940BFF1FCC
:103220006CB5FF1F74B5FF1FD0890000002848BF90
:1032300040427047002840F10980F446404200F0C7
:1032400005F850F000406047002800BF0AD0B0FAEF
:1032500080F18840D1F19D01C905020672F100425A
:1032600041EB1020704750F8041B61B150F8042B5B
:10327000D30744BFA9F101039A18002342F8043B85
:10328000091FFAD1EFE7704710B5FF2313EAD054B6
:103290001DBF13EAD1529C429A4239E0A41ADA07C0
:1032A00080EA0103134042EA012142EA0020421A67
:1032B0003CBF641E01EB4202090AB2FBF1FE01FBB6
:1032C0001E221202B2FBF1F001FB10226EF30F205E
:1032D0001202B2FBF1FE4EEA00207F3406DDFE2C26
:1032E00024DA53EA500050EBC45010BDD4F102046C
:1032F00001FB1E2240F08071192C1DDC21FA04F024
:10330000C4F12004A140114371F10042584110BDA5
:103310009C421ABF03EAD1529A420FE080EA010EA2
:103320000EF00043400004D0490016D143F0FF40A6
:1033300010BD490008BFD343180010BD9C4205D101
:10334000D21AF7D001F00041484010BD4A0212BF26
:103350000846484000F0004010BD4AB90902B1FAE1
:1033600081F2914044B1A418C00140F000409EE7B2
:10337000C90141F0004152420002B0FA80F4A0407D
:10338000141B94E74100090E7F3915D4D1F11F01B8
:1033900014D4400007D2C00140F00040C84048BFEC
:1033A0006FF000407047C00140F00040C8404CBF83
:1033B0004FF00040404270470020704700424FF0FD
:1033C000004058BFC043704738B504000D0064B2D8
:1033D000002C03D0022C66D049D380E0DFF8D8045B
:1033E000006850F08070DFF8D01408606DB2002DD6
:1033F0000BD0022D15D00ED3042D1ED017D3062DC1
:1034000027D020D3072D2AD02FE04FF48061412010
:1034100000F0A4FB2AE04FF44071042000F09EFB72
:1034200024E04FF44071052000F098FB1EE04FF4BB
:103430004071062000F092FB18E04FF48061642098
:1034400000F08CFB12E04FF48061652000F086FBF9
:103450000CE04FF48061662000F080FB06E04FF442
:103460008061672000F07AFB00E038E037E0DFF8A9
:103470004804006850F00070DFF83C1408606DB23A
:10348000002D02D0012D06D00BE04FF440710C202E
:1034900000F064FB06E04FF440710D2000F05EFB8D
:1034A00000E01CE01BE0DFF81404006850F08070BE
:1034B000DFF8081408606DB2002D02D0012D06D08F
:1034C0000BE04FF440710A2000F048FB06E04FF497
:1034D00040710B2000F042FB00E000E0FFE731BD4F
:1034E0002DE9F84F04000D0016001F0064B2002CF7
:1034F0000ED064B2012C02D064B2022C02D16DB2A3
:10350000022D05DB40F28511DFF8B40300F093FBD8
:10351000290049B2200040B2FFF756FFDFF8A403AC
:1035200000684FF47A71484380465FEA1840B0FB68
:10353000F6F08146002082461FFA89F959FA0AF00E
:10354000012802DB1AF1010AF6E75FFA8AFABAF1FA
:10355000080F05DB4FF4D071DFF8640300F06BFB5C
:1035600038FA0AF0B0FBF6F081461FFA89F9DFF865
:10357000580364B240F8249064B2002C03D0022CAB
:1035800019D00CD323E01FFA89F919F1010000FBCF
:1035900007F042F21071B0FBF1F0834617E01FFA1A
:1035A00089F919F1010000FB07F042F21071B0FB3C
:1035B000F1F083460BE01FFA89F919F1010000FBD5
:1035C00007F042F21071B0FBF1F08346FFE7DFF83D
:1035D000FC0264B250F824006DB210EBC500DFF8B5
:1035E000EC1264B251F824106DB211EBC501C96838
:1035F00031F00401C160DFF8D40264B250F8240055
:103600006DB210EBC5002821C1605FFA8AFA1AF08A
:10361000070050F00800DFF8B41264B251F824102B
:1036200008601FFA89F9DFF8A40264B250F8240098
:10363000C0F808900020DFF8941264B251F824100A
:10364000C864DFF8880264B250F824006DB210EB51
:10365000C5001FFA8BFBC0F810B00020DFF86C1219
:1036600064B251F824104860BDE8F18F2DE9F041B3
:1036700004000D0016005FF0000864B2002C0ED0AC
:1036800064B2012C02D064B2022C02D16DB2022DC0
:1036900005DB4FF4F371DFF8280200F0CCFA64B2D6
:1036A000002C03D0022C17D00BD320E042F2117073
:1036B000864205D34FF4F671DFF8040200F0BBFA3E
:1036C00015E042F21170864205D34FF4F871DFF82D
:1036D000F00100F0B0FA0AE042F21170864205D320
:1036E0004FF4FA71DFF8D80100F0A5FAFFE7DFF830
:1036F000D80164B250F82400804664B2002C03D094
:10370000022C15D00AD31DE018F1010000FB06F0D1
:1037100042F21071B0FBF1F0070013E018F1010064
:1037200000FB06F042F21071B0FBF1F0070009E077
:1037300018F1010000FB06F042F21071B0FBF1F04D
:103740000700FFE7DFF8840164B250F824006DB28F
:1037500010EBC5000761BDE8F08110B5040064B24C
:10376000012C07D064B2022C04D040F2DB21544873
:1037700000F061FA64B22000012802D0022811D0C2
:1037800021E04D48006850F000704B4908604FF44C
:10379000E0610C2000F0E2F94FF4E0610D2000F050
:1037A000DDF915E04548006850F080704349086035
:1037B0004FF4C0610A2000F0D1F94FF4C0610B2032
:1037C00000F0CCF904E040F213313D4800F033FA48
:1037D0003E4864B250F82400406D50F004003B496C
:1037E00064B251F824104865384864B250F8240097
:1037F000D0F8800050F00800344964B251F8241029
:10380000C1F880000020314964B251F82410C86426
:103810004FF6FF702D4964B251F8241088602B4890
:1038200064B250F82400D0F8800050F0010027491D
:1038300064B251F82410C1F88000244864B250F8F2
:103840002400406D50F00100204964B251F824106A
:10385000486500201D4964B251F82410486010BD2D
:1038600038B5040064B2012C07D064B2022C04D035
:103870004FF44C71124800F0DEF9144864B250F86D
:10388000240040680500280000B232BD10B50400D5
:1038900064B2012C07D064B2022C04D040F23E3155
:1038A000074800F0C8F90020084964B251F8241014
:1038B000486010BD000000003C800440308004409F
:1038C000888A000074B5FF1F7010FF1F180BFF1FC0
:1038D000FF2212EAD05C1DBF12EAD15394459342F5
:1038E0002BE09C44D30780EA01021A4043EA0020FF
:1038F00043EA0121A1FB0030410038BF40007CF1C8
:103900007F010BDBFE294ADA5B0842EAC15153EA28
:10391000006373F1004C51EB10207047D1F1080C9B
:10392000DCF120012FDB5B0810FA01F10B4373F18E
:10393000004120FA0CF05041704794451CBF02EA48
:10394000D153934280EA010202F000421DD04000B0
:1039500019D0490017D05BB9634514D00902B1FAF8
:1039600081F39940BCEB030CC00140F00040C1E77B
:103970000002B0FA80FC10FA0CF0B3EB0C0CC90199
:1039800041F00041B6E71000704740000AD04900FE
:1039900008D010F1807F94BF11F1807F02E042F0E7
:1039A000FF407047D043704790EA010F44BF81F059
:1039B000004100F043B800BF421A3CBF801A89188A
:1039C0004FF0004CC0F3C752FF2A24D0C1F3C753B5
:1039D00013B3D21AD2F1190327DD4CEA01214CFAB4
:1039E00003F321EA0303D140C20D4CEA0020401842
:1039F00034BF20EA0C004CEA5000D20553EA0063C1
:103A000073EB0C0C52EB1020420012F1807F38BF98
:103A10007047C00DC0057047490212BF9A4200EBC3
:103A20005120F8E7D2F11703D9D5704790EA010F7A
:103A300044BF81F00041FFF7BFBF00BF431A4FF002
:103A400000423EBF5340C01AC91800BFD3095FEA05
:103A5000D05C13EB400F34BFB3EB410F40E07CEB85
:103A6000D1530CD342EA012122D8D1EB402009D313
:103A7000400A28BF5FEA500140EBCC507047401A23
:103A800015D04002B0FA80F2521C9040400A4FEA32
:103A90003C23B3EB026384BF00EB730007E040F408
:103AA00000001A16DB07C2F10102D040184370472C
:103AB000182BFCDC31FA03F202FA03F3591A38BF6F
:103AC00042F00102D2EB40203CBF4000ACF1010CBF
:103AD0005FEACC5CC20572F100414CEB50207047AC
:103AE00013EB400F0FD24B0009D0ACEBD153022B9C
:103AF00003DB4902172BDDDD70479143401A430079
:103B0000D5D10020704713EB410FD0D36FF00000E8
:103B1000704701004FF0807C1CEB400F94BF1CEB02
:103B2000410F05E040EA010C5FEA4C0C01D28142F2
:103B3000704718BF884270474FF0807C1CEB400FE5
:103B400094BF1CEB410F05E040EA010C5FEA4C0C0E
:103B500001D28842704718BF8142704710B4294A89
:103B600012684FF40073C0B24409A3401A43254BB6
:103B70001A60254AC0B2431152F82320012310F0E5
:103B80001F04A340C2F8A0301F4AC0B2431152F82C
:103B90002320C0B210F01F0342F8231010BC70475E
:103BA00010B4184A12684FF40073C0B24409A3401D
:103BB0001A43144B1A60144AC0B2431152F823201E
:103BC000012310F01F04A340C2F8A03031F4E061DB
:103BD0000D4AC0B2431152F82320C0B210F01F03A7
:103BE00052F8232012F4E0621143074AC0B2431195
:103BF00052F82320C0B210F01F0342F8231010BC6B
:103C00007047000038800440800BFF1FDFF800F091
:103C1000A50EFF1FDFF800F0D50EFF1FBFF34F8F7B
:103C20004648006810F4E06045490843434908608D
:103C3000BFF34F8FFEE738B504000D00002000F001
:103C40008DF82A0021003F4800F0C0F8002000F065
:103C5000A2F84FF47A7000F0E6F8F2E738B5040005
:103C60000D00210049B20120FFF790FA200032BD7B
:103C700010B50024042000F0EDF8042000F020F935
:103C8000002841D1002000F069F8042000F018F964
:103C9000012801D101200400002000F07CF82A480E
:103CA00000F094F84FF4FA7000F0BDF8E4B2012C83
:103CB000EBD1042000F004F90028E6D1042000F044
:103CC000FFF8002806D1002000F065F8642000F01D
:103CD000AAF8F3E7042000F0F3F8012806D1002049
:103CE00000F059F8322000F09EF8F3E7174800F092
:103CF0006DF8FFF78BFF642000F095F80020FFF7C8
:103D000089FFFFF78BFFC0E710BD10B510480468AE
:103D1000012000F023F8012000F03DF80D48E4B246
:103D20000F2101FB0402E4B221000B4800F04EF821
:103D30004FF47A7000F077F8EDE700000CED00E04A
:103D40000400FA05608B0000AC8C0000DC8B0000E6
:103D500004ED00E01004FF1F108A000010B50400FD
:103D600064B2042C07DA01220121174864B2205CF6
:103D7000FFF756F80EE0042004002000441E40B275
:103D8000002807D0012201210F4864B2205CFFF710
:103D900047F8F2E710BD10B5040064B2042C05DA50
:103DA000094864B2205CFFF792F80CE0042004009C
:103DB0002000441E40B2002805D0034864B2205CB5
:103DC000FFF785F8F4E710BDC40DFF1F0EB400B572
:103DD00082B003A90091024600AB01210348784458
:103DE0000A3000F085F806BC5DF810FB9D4E00001F
:103DF00010B50400002C15D0B4F1807F03D3292125
:103E00000F48FFF718FF00200E4908600E480460B5
:103E100000200E49086005200A490860094800682A
:103E2000C003FBD510BD10B504002000441E0028BF
:103E300004D007480068FFF7DBFFF6E710BD00007D
:103E40009089000010E000E014E000E018E000E0DD
:103E50006CB5FF1F10B5040064B2082C0DDA002207
:103E60000021224864B2205CFEF7DAFF03211F48DC
:103E700064B2205CFFF794FE14E0082004002000E8
:103E8000441E40B200280DD000220021174864B221
:103E9000205CFEF7C5FF0321144864B2205CFFF7E5
:103EA0007FFEECE710BD10B50400104864B2205C42
:103EB000FFF729F8002801D1002000E0012010BD03
:103EC00010B50400200040B2FFF7EDFF00280AD132
:103ED0000A20FFF7A8FF200040B2FFF7E4FF002808
:103EE00001D1002000E0012010BD0000BC0DFF1F2B
:103EF0002DE9F04FA1B08246002017461D460291E1
:103F00000B900DF1440B6FF000490AE017F8011B0C
:103F10000298D0470290002800F0A3820B98401C22
:103F20000B90387808B90B989DE22528EED1002037
:103F3000059006900790089009900A9001E040F0E3
:103F4000010017F8011F2029F9D023290DD02B29B2
:103F500004D02D2906D030290AD00CE040F0020010
:103F600080B2EEE740F00400FAE740F00800F7E71F
:103F700040F01000F4E72A290ED12968296051F891
:103F8000042B29600D92002A04D5514240F0040010
:103F90000D9180B27F1C11E000210D9109E00D9977
:103FA000494505D001EB810302EB430130390D9106
:103FB0007F1C3A78A2F130010A29F0D339782E29F2
:103FC00003D04FF0FF310C911DE017F8011F2A2993
:103FD00007D1296829607F1C51F8042B29600C92B5
:103FE00011E000210C9109E00C99494505D001EB45
:103FF000810302EB430130390C917F1C3A78A2F126
:1040000030010A29F0D3ADF838000FF6B82039781E
:1040100000F066FD08B117F8010B8DF83A009DF825
:104020003A00682802BF39786829622005D06C28D8
:1040300004BF38786C2803D171208DF83A007F1CBA
:1040400011A8049017F8014BB4F1250024D02038B2
:10405000022840F2C680133800F0EC800B3800F0E4
:104060005081401E00F02581401E022840F2B98098
:10407000001F00F01E81401F00F08480401E00F0F1
:10408000D980401E29D0C01E0CD0801E00F0D280E6
:10409000C01E00F0CF803EE10120059025208DF864
:1040A000440044E12868286050F8044B28600394D9
:1040B000DDF83080B8F1000F04D5204600F01CFD7B
:1040C000804607E042460021204600F031FD08B15D
:1040D000A0EB0408CDF8188029E1296829604FF089
:1040E0003C0851F8040B29600021CDE9000111A81A
:1040F0000390DDE90001049C11B908B90C9ACAB11A
:104100000206120FA0EB02123032A8F1010ED2B259
:10411000F0463A2AA8BF273200090EF8042040EAE8
:104120000170090908BF002804D0039A08EB0403B2
:104130009A42E5D308EB04000390C8F13C010C98C7
:104140000691814209DA401A08904FF6EF71BDF8E6
:1041500038000840ADF83800E9E0002840F1E78079
:104160009DF8380000F01400102840F0E0800D9811
:10417000059A801A089A801A401A0128C0F2D7803E
:104180000890D4E09DF83A0062281AD0682806D03A
:104190006A280CD06C281CD0712808D019E0286837
:1041A000286050F8041B28600B980880BFE028683E
:1041B000286050F8042B28600B98C117C2E9000151
:1041C000B5E02868286050F8041B28600B98087038
:1041D000ADE02868286050F8041B28600B98086040
:1041E000A5E02868C01D20F007022A60D2E900017E
:1041F00008322A60CDE90001002903D5012005908D
:104200002D200CE0BDF83800810703D50120059072
:104210002B2004E0C00704D50120059020208DF854
:104220004400059911A808180390214600A800F041
:10423000D7F97CE09DF83A206C2A0DD0712A18BF7E
:104240006A2A09D12868C01D20F007032B60D3E932
:10425000000108332B6005E02968296051F8040B40
:1042600029600021CDE90001682A08BF80B207D08B
:10427000622A08BFC0B203D0742A18BF7A2A02D1BA
:104280000021CDE900019DF83800000730D5DDE9B7
:104290000001002908BF00282AD044F02000782817
:1042A00026D130208DF844008BF801400220059083
:1042B0001EE029469DF83A0000F0D8F8CDE900014B
:1042C000002904DA0598411C05912D210EE0BDF866
:1042D0003800810704D50598411C05912B2105E084
:1042E000C00705D50598411C0591202100F80B1049
:1042F000059911A808180390214600A800F0EDF8D0
:1043000015E0012005902868286050F8041B2860FB
:104310008DF844100BE00120059025208DF8440015
:10432000002C04D00598411C059100F80B400D9815
:104330000599401A0899401A0699401A0999401A95
:104340000799401A0A99A0EB01089DF83800400728
:104350000FD420208DF84000002408E0012310AA8B
:1043600000A9504600F097FB00287AD1641C444510
:10437000F4DB059C11AE0AE016F8011B0298D04749
:10438000029000286DD00B98401C0B90641E002CEE
:10439000F2D130208DF840000026089C08E001236F
:1043A00010AA00A9504600F076FB002859D1761CCF
:1043B000A642F4DB069C039E0AE016F8011B029855
:1043C000D047029000284CD00B98401C0B90641EE4
:1043D000002CF2D130208DF840000026099C07E027
:1043E000012310AA00A9504600F055FBC8BB761C5B
:1043F000A642F5DB03980699079C0E1809E016F80B
:10440000011B0298D047029058B30B98401C0B90A8
:10441000641E002CF3D130208DF8400000260A9C49
:1044200007E0012310AA00A9504600F034FBC0B9F0
:10443000761CA642F5DB9DF8380040077FF571AD8C
:1044400020208DF84000002400E0641C4445BFF6A5
:1044500068AD012310AA00A9504600F01CFB0028FB
:10446000F3D04FF0FF3021B0BDE8F08F622826D0A6
:1044700068281DD06A2808D06C2827D0712804D05D
:10448000742823D07A280CD020E00868C01D20F0C2
:1044900007000860D0E9002308300860194610467C
:1044A00070470A680A6052F8040B0A6000217047DE
:1044B0000A680A6052F8040B0A6000B20BE00A684E
:1044C0000A6052F8040B0A6040B204E00A680A600D
:1044D00052F8040B0A60C11770472DE9FA4E0546E1
:1044E0000A462F696F2A08BF082405D041F0200032
:1044F000782814BF0A241024D5E900013C268146FF
:104500008A46642A18BF692A05D1002903DAD9F13D
:1045100000096AEB4A0ABAF1000F08BFB9F1000FAF
:104520000CD1286B50B9082C36D195F8380000070B
:1045300032D530203B2687F83B002DE0E317484674
:104540005146224600F020FBA4FB0023A9EB020207
:104550003032A6F1010BD2B25E463A2A03DB9DF857
:104560000030513B9A180BF8072081465FEA010A98
:1045700008BFB9F1000F03D0E868F1198842DDD314
:10458000082C09D195F83800000705D5F05D3028D2
:1045900002D0761E3020F055C6F13C00A861F1191A
:1045A000E960296B884208DA081A28624FF6EF7131
:1045B000288F08402887BDE8F38E00290ED595F88E
:1045C000381001F01401102908D1696B6A69891A41
:1045D0002A6A891A081A0128A8BF2862BDE8F38E42
:1045E0002DE9F34F8BB0D0E90089006B01AF0028B3
:1045F00048BF062005D404BF41F02000672802D13F
:1046000001200B99086340F2FF720B984168C1F3D7
:104610000A50904220D1080302BF0B98006800287E
:104620000AD10B99032088619DF8300061381A285F
:1046300058D30FF2A44109E00B99032088619DF83B
:10464000300061381A284AD30FF284410B98C068B1
:10465000032200F011FB00E1012807DA0B9800F0BB
:1046600046FB012802DB00230026EDE00B9A52688E
:1046700040F2FE3161F31E520B994A6040F2FE3166
:10468000461A404649460022002300F051FB38BF3D
:1046900089F0004936B247F2975070434949DFF834
:1046A00028B190FBF1F636B2C6F107079246012F0A
:1046B0001BDBF80707D552465B464046494600F0EB
:1046C0004FFB804689467F105046594652465B460E
:1046D00000F046FB82468B46002FEAD126E00FF21F
:1046E000EC31B3E70FF2EC31B0E77F420024374DF5
:1046F00012E0F80707D552465B462046294600F0EF
:104700002FFB04460D467F105046594652465B46E5
:1047100000F026FB82468B46002FEAD140464946F0
:1047200022462B4600F0EEFB804689469DF830007D
:1047300040F02005662D0CBF06F10A0006200B99FB
:10474000096B4718142FA8BF132730208DF80400D9
:104750000DF10504DFF878B0012F3BDB40464946F8
:1047600000F0F4FC014604F1080204234FF00A0CA7
:10477000B1FBFCFC0CEB8C04A1EB4401303102F8E2
:10478000011D0A21BCFBF1FE0EEB8E04ACEB4404D0
:104790003034714602F8014D5B1EE7D1083F02F14B
:1047A0000804012FD8DB00F0E7FC02460B46404628
:1047B000494600F0EFFC00225B4600F0D1FA80464B
:1047C0008946CBE7A0860100000024400000F03FAE
:1047D00084D797410DF10500201A0DF1050702E07D
:1047E000401E761E7F1C39783029F9D0662D02D103
:1047F00036B2711C03E0652D0CBF012100210B9A1C
:10480000126B8B181BB29842B8BF03461BB219003B
:104810001AD4814204DAC85D3528A8BF392000DAED
:104820003020CA19521E00E05B1E12F80159491EC1
:104830008542F9D0392802D1C85D401CC8550029ED
:1048400002D57F1E5B1C761C36B29DF830100B988B
:1048500000961BB23A4600F003F80DB0BDE8F08FA9
:104860002DE9F04786B006468A4690461D4600F080
:104870006EFD406A376B90F80090012D02DA012539
:104880000FF258284AF02000BDF93840662808BFCA
:10489000641C13D0672840F0888014F1040F73DB88
:1048A000BC4271DA96F83800641C000702D4BD429D
:1048B000B8BF2F4624B23F1B48BF0027F068B1693C
:1048C00024B2012C21DA30234A1C0B54012F03DAC5
:1048D00096F83810090702D502F80090521CB26110
:1048E000E742B8BF7C4224B26142E7197162AF422D
:1048F000B8BF3D462DB2F5612A46B3694146181846
:1049000000F0BAF9781BB062AEE00818A54216DADA
:104910002A46414600F0B0F9B1696918B161601BDF
:104920007062012F03DA96F83800000705D5F068A9
:1049300001F80090F069401CF061B76294E02246F3
:10494000414600F099F9B06920182D1B012F03DAB8
:1049500096F83810090703D5F16800F80190401C5B
:104960002DB2B061AF42B8BF3D46F068B3692DB219
:104970002A4604EB0801181800F07EF9B0692818DF
:10498000B061781B70626FE0BD4204DA96F83810AF
:10499000090758BF2F467F1E48BF0027BAF1670F8F
:1049A0000CBF4FF0650A4FF0450AB169F06818F87E
:1049B000013B0B544A1C012F05DA96F83810090701
:1049C00058BFB26115D502F80090531CB361012F96
:1049D0000FDB6D1E2DB2AF42B8BF3D462DB22A4649
:1049E0004146181800F048F9B0692818B061781BE2
:1049F0007062F068B16901EB0008200008F801ABB3
:104A000003D42B2008F8010B03E02D2108F8011B2B
:104A10006442002502AF08E00A2200A800F0B0FCC2
:104A2000019807F8010B6D1C009C21B20129F3DAF3
:104A3000022D06DA4AF02000652804BF302008F86D
:104A4000010B4DB9302008F8010B07E06D1E02A8DC
:104A5000285C303008F8010B012DF7DAF068B169F5
:104A60000818A8EB0000F06196F8380000F0140078
:104A700010280DD17069B1690818716A0818F169B8
:104A80000818B16A0818716B8842BCBF081A3062F6
:104A900006B0BDE8F087F8B504460D4616461F4639
:104AA000002004E0E86A401CE8627F1E002047B155
:104AB00016F8011BA868A047A8600028F2D14FF0A3
:104AC000FF30F2BD686A6C747A4C00006E616E0053
:104AD0004E414E00696E6600494E460030000000AF
:104AE0000278C9B28A421AB11CBF10F8012FF9E747
:104AF00018BF00207047000000F10103810704D0B7
:104B000010F8011B89B18107FAD10268B2F10131B5
:104B1000914311F0803F04BF50F8042FF6E710F8DE
:104B2000011B11B110F8011BFBE7C01A7047000010
:104B3000C9B2830706D0521E22D310F8013B994216
:104B4000F7D11FE0083A13D302F1040241EA012130
:104B500041EA014150F8043B121F21BF4B40A3F131
:104B6000013C2CEA030C1CF0803FF3D0C9B2001FBB
:104B7000083210F8013B521E28BF91EA030FF8D803
:104B800018BF0120401E70471B4213D1094236D185
:104B90002AB18446B0FBF2F002FB10C2704700F06D
:104BA000F7BBFCD30022002370470B00020000215A
:104BB00000207047904271EB030CF6D370B5B1FA48
:104BC00081F4B3FA83F52C1BA340C4F1200532FA1B
:104BD00005F63343A2405FF00046E64002E05B0882
:104BE0005FEA3202841A71EB030524BF204629468E
:104BF0007641F4D302000B003000002170BD012A81
:104C0000CFD970B5140C20D0B1FA81F4B2FA82F584
:104C1000C4F120046419B4F12006D6D3B2405FF089
:104C20000044F440002502E052085FEA3303C61A4C
:104C300071EB020E24BF3046714664416D41F3D3DF
:104C400002000B002000290070BD0C46B1FBF2F100
:104C500002FB11452D0445EA1045B5FBF2F402FBB9
:104C6000145580B240EA0545B5FBF2F002FB105244
:104C700040EA044070BD000062B38B0708D0521EAA
:104C800011F8013B00F8013B00F024808B07F6D1BE
:104C9000830740F0208000BF103A07D330B4B1E85A
:104CA0003810103AA0E83810F9D230BC530724BFAE
:104CB000B1E80810A0E8081044BF51F8043B40F8E0
:104CC000043BD20724BF31F8022B20F8022B44BF4B
:104CD0000B7803707047083A07D3B1E80810083A18
:104CE00040F8043B40F804CBF7D25307E4E730B474
:104CF000436803F0004201211B031B0B436004BF08
:104D00000368002B08D10DE00368DD0F45EA440479
:104D100044605B000360491E4468E302F4D523034A
:104D20001B0B436043681A434260084630BC70471F
:104D30004FF4001C1CEB410F94BF1CEB430F09E028
:104D400041EA030C50EA4C0C52EA0C0C03D2994293
:104D500008BF9042704714BF8B42824270470000E8
:104D6000B0B581EA030C0CF0004C40F2FF7515EA77
:104D700011541DBF15EA1357AC42AF4239E0E41994
:104D800023EA455343F48013C90241F0004141EA4C
:104D9000505EC7021100A7FB020200284FF000007E
:104DA000EEFB01204FF00001E3FB072118BF42F0AA
:104DB0000102401800214941E3FB0E01A4F5806483
:104DC0000F0302D252004041494154F101046CDD0D
:104DD000470872F1004250F1000051EB0451A1F577
:104DE00080115CBF41EA0C01B0BD4CEA05510020C6
:104DF000B0BD05EA1357AC4214BFAF4241E050EAE0
:104E0000410E1CBF52EA430E02E061460020B0BDD5
:104E100024423C441BD15FEA070EF6D0090302BFCF
:104E200001460020AEF1140EB1FA81F7AEEB070493
:104E300001FA07FE0C37C7F1200100FA07F7C84056
:104E40004EEA000E23EA455343F48013A2E733F001
:104E50000043B3FA83F704BFB2FA82FE77440B3FF4
:104E6000E41BB7F1200E2FBF02FA0EF3BB40C7F1CF
:104E7000200E22FA0EFE38BF43EA0E03BA40641C2D
:104E800082E750EA410E14BF52EA430E6FF0000170
:104E90004FF4001717EB430F8ABF194617EB410F6A
:104EA000B5E74CEA05510020B0BDD4F10104B4F1DE
:104EB00020070FDAC4F12007520828BF42F0010290
:104EC00010FA07F501FA07F7E1BF2A43E04038433B
:104ED000E1400FE0352C98DCC7F1200452EA400293
:104EE00020FA07F218BF42F0010231FA07F0A140A0
:104EF0000A43002172F1004250F1000051EB0C0115
:104F0000B0BD0000F0B540F2FF7581EA030C0CF073
:104F1000004C15EA11541DBF15EA1357AC42AF42BD
:104F2000E5E0BC41C1F31301C3F31303801A9941B7
:104F300043F4801304D2641E400049418018594153
:104F4000C90241EA5051B1FBF3F603FB1611A2FB73
:104F50000675D7EBC020A94102D2761E80185941B0
:104F6000C90241EA5051B1FBF3FE03FB1E11A2FB43
:104F70000E75D7EBC020A94103D2AEF1010E801807
:104F80005941890241EA9051760546EA8E2EB1FBDD
:104F9000F3F603FB1611A2FB0675D7EB8020A9419F
:104FA00002D2761E80185941C90241EA50514EEA98
:104FB000060EB1FBF3F603FB1611A2FB0675D7EB49
:104FC000C020A94102D2761E80185941C90241EA87
:104FD0005051B1FBF3F703FB1711A2FB0735D3EBDD
:104FE000C020A94167F100070CBF004247F001074C
:104FF00066F3D5274FEA1E31B80814F5806412DD38
:10500000BD0775F1004250EB0E5051EB045111F504
:10501000801F5CBF41EA0C01F0BD4CF07F6141F0A4
:10502000E0410020F0BDBD076D0840EA0E5041F49C
:105030008011D4F10104B4F120060ADAC4F120068B
:105040000200E04001FA06F3E1401843B240154384
:105050000EE0342C13DCC6F1200445EA40056D084F
:1050600020FA06F2154321FA06F0A1400D43002173
:1050700075F1004250F1000051EB0C01F0BD002031
:105080005FEA0C01F0BDCFB992185B41B3FA83F728
:1050900004BFB2FA82F6BF190B3FB7F120062FBF4B
:1050A00002FA06F3BB40C7F1200622FA06F638BF23
:1050B0003343BA401CB1E419641E33E77F4231F038
:1050C0000041B1FA81F404BFB0FA80F6A4190B3C98
:1050D000B4F120062FBF00FA06F1A140C4F120066A
:1050E00020FA06F638BF3143A0403C1B1AE7AC4219
:1050F0001ABF05EA1357AF4212E050EA41061CBF3F
:1051000052EA4306BFE750EA4107304661461CBFFA
:1051100041EA0551F0BD52EA430C08BFC143F0BD5E
:1051200000204FF4001616EB410F98BF16EB430F0B
:1051300008BF16EB410F24BFC14305E016EB430F38
:105140000CBF61464CEA0551F0BD0000400D40EA3D
:10515000C120490080F00D8040F00040490DA1F5CC
:105160008061491C05D4D1F11F0154BFC840C0174C
:1051700070474FF000007047010000BF09D0B0FA3F
:1051800080F18840C91CC1F58461090501EBD0217B
:105190004005704770B44FF0004591EA030F44BFDB
:1051A0006B4000F0F7B800BF841A71EB030604D21D
:1051B0006E40001BB141121973414FF4001C1CEBEF
:1051C000410F34BF7CEB430684E00C0DA4EB135677
:1051D000362E7DDC012E43DC45EAC32343EA5253DD
:1051E00012BFD20292025B08240545EAC12141EABE
:1051F0005051D2EBC020994125D407D1B0FA80F6A6
:1052000010FA06F164D00020203608E0B1FA81F6E9
:10521000B140C6F1200220FA02F21143B0404FEA39
:10522000F474B4EB465434F001064FEA74040AD81F
:10523000D6F50016760D04F00044F04061FA06F24F
:105240005040F1404840C00A40EA415021F000413E
:1052500028BF5FEA500550F1000044EBD12137E050
:1052600045EAC323DB0A45EAC121C90AB6F1200594
:105270000EDD42EA0242120CC5F1200603FA06F6E0
:10528000EB4042EA06056D42984161F100010DE0F4
:1052900062FA06F5F240554063FA06FC82EA0C0217
:1052A000F3405A406D42904161EB030111F4801FBD
:1052B00005D1641E620502D06D004041494121F4D0
:1052C0008011430875F1004350F1000041EB045197
:1052D00070BC70471CEB410F15D223F0004352EA1B
:1052E00043060BD04FEA4C0CBCEB410F04D80C0D1D
:1052F000661E342EB7DDEBE7801A994150EA41066D
:1053000008BF0021E4E708BF1CEB430F28BF6FF084
:105310000001DDE780B5134800F0A6F80FF2480160
:10532000016041608160C1600161416181610FF292
:105330003C0242628162C162016341630FF230024A
:1053400082630FF23402C2630164416401BD10B58F
:10535000044800F089F80446206808B9FFF7DAFF2E
:10536000204610BD34B6FF1F000000002E000000D4
:1053700066616C7365000000747275650000000062
:1053800091FBF2F303FB1211C0E9003170470000FA
:1053900070470000841A71EB030603D2001BB14171
:1053A000121973414FF4001C1CEB410F34BF7CEB0E
:1053B000430443E00C0DA4EB1356352E50DC45EAB4
:1053C000C323DB0A45EAC121C912B6F120050DDD70
:1053D00063FA05F6EB4086EA0305124218BF45F072
:1053E0000105C01851F100010CD213E062FA06F574
:1053F000F2405540F3415A40B340F3405A408018C0
:10540000594107D349085FEA30005FEA350528BFF4
:1054100045F0010501F58011420875F1004250F197
:10542000000041EB045170BC4FF4001C1CEB410F19
:1054300038BF70470020090D090570471CEB410F6C
:1054400010D252EA43060BD0BCEB410F05D80C0D2D
:10545000AB43661E342EB5DD02E0AB4380185941E4
:1054600070BC704770BC70477047000000000000BF
:10547000000000000000000000000000000000002C
:10548000000000000000000000004E6F6E4D6173D0
:105490006B61626C65000000004861726446617572
:1054A0006C740000000000004D656D4D616E616719
:1054B000656D656E7400004275734661756C7400AD
:1054C00000000000000055736167654661756C74EB
:1054D00000000000000000000000000000000000CC
:1054E00000000000000000000000000000000000BC
:1054F00000000000000000000000000000000000AC
:10550000000000000000000000000000000000009B
:1055100000535643616C6C00000000000000000066
:1055200044656275674D6F6E69746F7200000000AC
:1055300000000000000000000000000000005065B6
:105540006E645356000000000000000000537973A1
:105550005469636B0000000000000000444D4130BE
:105560000000000000000000000000444D41310038
:1055700000000000000000000000444D4132000027
:10558000000000000000000000444D413300000016
:105590000000000000000000444D41340000000005
:1055A00000000000000000444D41350000000000F4
:1055B000000000000000444D4136000000000000E3
:1055C0000000000000444D413700000000000000D2
:1055D00000000000444D41380000000000000000C1
:1055E000000000444D4139000000000000000000B0
:1055F0000000444D41313000000000000000000078
:1056000000444D4131310000000000000000000066
:10561000444D413132000000000000000000004411
:105620004D41313300000000000000000000444DF7
:1056300041313400000000000000000000444D41F2
:10564000313500000000000000000000444D415FC3
:105650004572726F720000000000004D434D000063
:10566000000000000000000000004654464C00000E
:10567000000000000000000000526561645F436F9D
:105680006C6C6973696F6E004C56445F4C565700E2
:10569000000000000000004C4C570000000000001B
:1056A0000000000000005761746368646F670000C9
:1056B0000000000000524E47000000000000000003
:1056C00000000000493243300000000000000000EC
:1056D00000000049324331000000000000000000DB
:1056E000000053504930000000000000000000009E
:1056F000005350493100000000000000000000008D
:105700005350493200000000000000000000004338
:10571000414E305F4F525F4D425F627566004341BC
:105720004E305F4275735F4F666600000043414E26
:10573000305F4572726F72000000000043414E30CE
:105740005F54785F5761726E696E6743414E305F98
:1057500052785F5761726E696E6743414E305F5792
:10576000616B655F55700000005265736572766508
:10577000643531000000000052657365727665641F
:105780003532000000000043414E315F4F525F4D03
:10579000425F6275660043414E315F4275735F4FF1
:1057A000666600000043414E315F4572726F7200C1
:1057B0000000000043414E315F54785F5761726EC4
:1057C000696E6743414E315F52785F5761726E690F
:1057D0006E6743414E315F57616B655F55700000E6
:1057E000005265736572766564353900000000000B
:1057F00052657365727665643630000000000055AE
:10580000415254305F52585F5458000000005541D7
:105810005254305F45525200000000000055415282
:1058200054315F52585F54580000000055415254A3
:10583000315F455252000000000000554152543281
:105840005F52585F54580000000055415254325F77
:1058500045525200000000000055415254335F523F
:10586000585F54580000000055415254335F455270
:105870005200000000000055415254345F52585FFE
:1058800054580000000055415254345F45525200B4
:10589000000000000055415254355F52585F545883
:1058A0000000000055415254355F4552520000003F
:1058B00000000041444330000000000000000000F0
:1058C00000004144433100000000000000000000DF
:1058D00000434D50300000000000000000000000B8
:1058E000434D503100000000000000000000004364
:1058F0004D5032000000000000000000000046543F
:105900004D30000000000000000000000046544D33
:1059100031000000000000000000000046544D323D
:105920000000000000000000000000434D54000093
:10593000000000000000000000005254430000007E
:10594000000000000000000000526573657276657B
:10595000643833000000000050495430000000005B
:105960000000000000000050495431000000000019
:105970000000000000005049543200000000000008
:1059800000000000005049543300000000000000F7
:105990000000000050444230000000000000000001
:1059A00000000055534230000000000000000000DD
:1059B0000000555342444344000000000000000032
:1059C00000454E45545F313538385F54696D657216
:1059D000454E45545F5472616E736D6974000045A5
:1059E0004E45545F52656365697665000000454E1B
:1059F00045545F4572726F720000000000493253D7
:105A00003000000000000000000000005344484344
:105A1000000000000000000000000044414330008E
:105A2000000000000000000000004441433100007D
:105A30000000000000000000005453493000000046
:105A400000000000000000004D434700000000007F
:105A5000000000000000004C5054696D65720000A9
:105A60000000000000005265736572766564313095
:105A70003200000000504F5254410000000000006E
:105A800000000000504F525442000000000000008F
:105A9000000000504F52544300000000000000007E
:105AA0000000504F5254440000000000000000006D
:105AB00000504F525445000000000000000000005C
:105AC00052657365727665643130380000000052AB
:105AD0006573657276656431303900000000526587
:105AE0007365727665643131300000000052657371
:105AF000657276656431313100000000526573656E
:105B0000727665643131320000000052657365724F
:105B1000766564313133000000005265736572763A
:105B2000656431313400000000526573657276653A
:105B3000643131350000000052657365727665642A
:105B4000313136000000005265736572766564314C
:105B5000313700000000526573657276656431313B
:105B60003800000000526573657276656431313922
:105B700000000000008003400090034000800B40C4
:105B800000F00F4040F00F4080F00F40C0F00F4099
:105B900000F10F40F0000A1D30001800320018011B
:105BA000600018186400181A6E00181F7800131887
:105BB0007D00131A8200131C8C000E1296000E1525
:105BC000A0000E18AA000E1BB4000E1EC8000C1C6C
:105BD000E1000B1EFA000A1F0001090800900440B2
:105BE00000A0044000B0044000C0044000D00440C5
:105BF00000A0064000B0064000C0064000D00640AD
:105C000000A00E4000B00E4020000000690000001F
:105C100031003200320032003300330034003400EF
:105C200034003600FEFF0000000001000200030007
:105C30000400050006000700080009000A000B0028
:105C40000C000D000E000F001000110022002200B9
:105C50002400260029002A002C002E002F003200EC
:105C600033000600060008000A000C0003000700CD
:105C70000A000C000F0012001300150019001B0091
:105C80001D001F00220023002500260029002A00F5
:105C90002C002E002F00320034003600370039006F
:105CA0003A003A003B003D003F0041004200440002
:105CB0004500470049004A004F004F004F004F0089
:105CC0004F004F004F004F004F004E005400550052
:105CD000560057004F004F004F004F004F004F003D
:105CE0005E005F00600061006200630064006600A7
:105CF0006700680069006A006B006C006D006E0050
:105D00006F007000710072007300740075007600FF
:105D100077007800080008000800090009000A0060
:105D20000A000A000B000B000C000C000C000D0018
:105D30000D000E000E000E000F000F0010001000EE
:105D400011001100110012001200130013001300C3
:105D50001400140015001500150016001600170099
:105D60001700180018001800190019001A001A006E
:105D70001A001B001B001C001C001C001D001D0045
:105D80001E001E001F001F001F0020002000210019
:105D900021002100220022002300230023002400F0
:105DA00024002500250026002600260027002700C5
:105DB000280028002800290029002A002A002A009B
:105DC0002B002B002C002C002C002D002D002E0071
:105DD0002E002F002F002F00300030003100310046
:105DE000310032003200330033003300340034001D
:105DF00035003500360036003600370037003800F1
:105E00003800380050000000A5530C41A5530C4148
:105E1000A00FA00FA00F00006A6E6B6C686D4E4F54
:105E200034353637010000000DC1110009030CD0D4
:105E30001240173F185019031A783200A00A63E085
:105E4000ACFF650C6600670029282C3C2A007E0CFC
:105E50007F16802A814E8261836F847B8586868E41
:105E6000879788A489AF8AC58BD78CE88D204A0094
:105E7000491347084B144C17460522992303A604DF
:105E80009B009C39AB069E119F0200003100000070
