:10000000F8FF002011040000773200007732000072
:10001000773200007732000077320000773200003C
:10002000773200007732000077320000773200002C
:10003000773200007732000077320000773200001C
:10004000773200007732000077320000773200000C
:10040000FFFFFFFFFFFFFFFFFFFFFFFFFEFFFFFFFD
:1004100062B606F04BFDFEE72DE9F04FA1B0824633
:1004200002AE002017461D46029170620DF144088D
:100430000AE017F8011B0298D0470290002800F04C
:10044000D482706A401C7062387808B9706ACEE253
:100450002528EED10020F06030617061B061F0615C
:10046000306201E040F0010017F8011F2029F9D0A7
:1004700023290DD02B2904D02D2906D030290AD0CC
:100480000CE040F0020080B2EEE740F00400FAE732
:1004900040F00800F7E740F01000F4E72A290DD1FA
:1004A00029680A1D2A600968F162002904D54942B9
:1004B00040F00400F16280B27F1C13E00021F16281
:1004C0000BE0F16A6FF00043994205D001EB810324
:1004D00002EB43013039F1627F1C3A78A2F130011E
:1004E0000A29EED339782E2903D04FF0FF31B162BB
:1004F0001EE017F8011F2A2906D129680A1D2A6063
:100500007F1C0968B16213E00021B1620BE0B16A9F
:100510006FF00043994205D001EB810302EB4301E8
:100520003039B1627F1C3A78A2F130010A29EED34A
:1005300030860FF6BC20397800F078FD08B117F846
:10054000010B8DF83A009DF83A00682802BF39780F
:100550006829622005D06C2804BF38786C2803D144
:1005600071208DF83A007F1C11A8B0603978B1F184
:10057000250023D02038022840F2B980133800F03B
:10058000E1800B3800F07781401E00F02081401E92
:10059000022840F2AC80001F00F01981401F7BD080
:1005A000401E00F0CF80401E22D0C01E0BD0801E07
:1005B00000F0C880C01E00F0C58064E1F068411CF6
:1005C000F160252169E12868011D29600068B26A8F
:1005D0007060002A02D500F035FD07E0002100F030
:1005E0004DFD00281ABF7168401AB06A306156E1AB
:1005F0002868011D296000210068CDE900014FF045
:100600003C0E11A87060DDE9000111B908B9B26AA9
:10061000CAB10206120FA0EB02123032AEF1010392
:10062000D2B29E463A2AA8BF2732000903F8082012
:1006300040EA0170090908BF002804D0726811ABB4
:1006400073449A42E5D311A971447160CEF13C0024
:10065000B16A3061884207DA081AB0614FF6EF716B
:10066000308E084030861AE1002940F1188196F852
:10067000301001F01401102940F01181F16AF26884
:10068000891AB269891AA1EB000EBEF1010FC0F2FE
:100690000681C6F818E002E19DF83A00622818D0F9
:1006A000682806D06A280BD06C2819D0712807D08A
:1006B00016E02868011D29600068716A0180EEE07B
:1006C0002A68101D28601268706AC117C2E900010B
:1006D000E5E02868011D29600068716A0170DEE0AC
:1006E0002868011D29600068716A0160D7E02868E8
:1006F000C01D20F00700286000F108022A60D0E940
:100700000023CDE90023002B04D5F068421CF260E1
:100710002D220DE0308E820704D5F068421CF26075
:100720002B2205E0C00705D5F068421CF2602022AC
:1007300000F80820F06811AA8018706000A800F086
:10074000E3F9ACE09DF83A006C2808BF2A6811D0A4
:10075000712808BF2A6802D02A686A280AD1D21DE7
:1007600022F007022A60144604F108022A60D4E944
:10077000002303E0131D2B6000231268CDE9002342
:10078000682808BF92B207D0622808BFD2B203D04F
:10079000742818BF7A2802D10023CDE9002396F8E7
:1007A000300000075FD5DDE90023002B08BF002AD9
:1007B00059D041F02000782855D1F068302200F857
:1007C0000820401C421CF26000F808104BE09DF825
:1007D0003A0062280CD0682810D06A281AD06C28F9
:1007E00023D0712816D074281FD07A280CD01CE092
:1007F0002868021D2A6090F900201AE02868021D6E
:100800002A60B0F9002014E02868021D2A60002345
:1008100002680FE02868C01D20F00700286000F182
:1008200008022A60D0E9002304E02868021D2A603B
:100830000268D317CDE90023002B04DAF068421CCC
:10084000F2602D220DE0308E820704D5F068421C44
:10085000F2602B2205E0C00705D5F068421CF2606B
:10086000202200F80820F06811AA8018706000A803
:1008700000F0C0F813E0F068411CF16029680A1D1F
:100880002A60096809E0F068421CF260252200F83D
:10089000082021B1F068421CF26000F80810F06AEC
:1008A000F168401AB169401A3169401AF169401A79
:1008B0007169401A316AA0EB010996F830007F1C7B
:1008C000400710D420208DF84000002409E00123C7
:1008D00010AA00A9504600F073FB002840F0858064
:1008E000641C4C45F3DBF4680DF1440B0AE01BF883
:1008F000011B0298D0470290002876D0706A401CF5
:100900007062641E002CF2D130208DF840004FF050
:10091000000BB46909E0012310AA00A9504600F0B9
:100920004FFB002861D10BF1010BA345F3DB3469C8
:10093000D6F804B00AE01BF8011B0298D0470290D9
:10094000002852D0706A401C7062641E002CF2D1E4
:1009500030208DF840004FF0000BF46909E00123CE
:1009600010AA00A9504600F02BFB00283DD10BF146
:10097000010BA345F3DB30697168746900EB010B6F
:1009800009E01BF8011B0298D047029068B3706A17
:10099000401C7062641E002CF3D130208DF84000A2
:1009A0004FF0000B346A08E0012310AA00A950465A
:1009B00000F006FBC8B90BF1010BA345F4DB96F878
:1009C000300040077FF540AD20208DF84000002426
:1009D00000E0641C4C45BFF637AD012310AA00A906
:1009E000504600F0EDFA0028F3D04FF0FF3021B070
:1009F000BDE8F08F2DE9FA47064682B035690A4610
:100A00006F2A08BF082705D041F02000782814BFBE
:100A10000A271027D6E900013C2480468946642A2B
:100A200018BF692A05D1002903DAD8F1000869EB5B
:100A30004909B9F1000F08BFB8F1000F0CD1306BB4
:100A400050B9082F3BD196F83800000737D5302031
:100A50003B2485F83B0032E0CDE90089FB17404696
:100A600049463A4600F036FBB846A8FB0023DDE9CC
:100A70000089A8EB02023032A4F1010AD2B2544636
:100A80003A2A03DB9DF80830513B9A180AF80520F2
:100A900080465FEA010908BFB8F1000F03D0F06893
:100AA00061198842D8D3082F09D196F83800000779
:100AB00005D5605D302802D0641E30206055C4F139
:100AC0003C00B0616119F160316B884207DA081AA5
:100AD00030624FF6EF71308F0840308710E0002908
:100AE0000ED596F8381001F01401102908D1716B59
:100AF0007269891A326A891A081A0128A8BF3062F5
:100B000004B0BDE8F08700002DE9F34F8BB0D0E9C9
:100B10000089006B01AF002802D50B98062106E082
:100B200004BF41F02000672802D10B980121016326
:100B30000B984168C1F30A5040F2FF72904220D1F5
:100B4000080302BF0B98006800280AD10B98032104
:100B500081619DF8300061381A2858D30FF2A44102
:100B600009E00B98032181619DF8300061381A2853
:100B70004AD30FF288410B98C068032200F022FB91
:100B800001E1012807DA0B9800F057FB012802DB8E
:100B900000230026EEE00B9A526840F2FE3161F32A
:100BA0001E520B994A6040F2FE31461A40464946B1
:100BB0000022002300F062FB38BF89F0004936B202
:100BC00047F2975070434A49DFF828B190FBF1F69D
:100BD00036B2C6F107079246012F1BDBF80707D58F
:100BE00052465B464046494600F060FB80468946D7
:100BF0007F105046594652465B4600F057FB8246EE
:100C00008B46002FEAD126E00FF2EC31B3E70FF26A
:100C1000F031B0E77F420024374D12E0F80707D5E6
:100C200052465B462046294600F040FB04460D46EE
:100C30007F105046594652465B4600F037FB8246CD
:100C40008B46002FEAD14046494622462B4600F00B
:100C5000FFFB804689469DF8300040F02005662D58
:100C60000CBF06F10A0006200B99096B4718142FD8
:100C7000A8BF132730208DF804000DF10504DFF81C
:100C80007CB0012F3CDB4046494600F005FD0146A3
:100C900004F1080204234FF00A0CB1FBFCFC0CEB3E
:100CA0008C04A1EB4401303102F8011D0A21BCFB88
:100CB000F1FE0EEB8E04ACEB44043034714602F8C6
:100CC000014D5B1EE7D1083F02F10804012FD8DB7C
:100CD00000F002FD02460B464046494600F00AFD80
:100CE00000225B4600F0E2FA80468946CBE700BF6F
:100CF000A0860100000024400000F03F84D7974107
:100D00000DF10500201A0DF1050702E0401E761EC8
:100D10007F1C39783029F9D0662D02D136B2711C8A
:100D200003E0652D0CBF012100210B9A126B8B187B
:100D30001BB29842B8BF03461BB219001AD48142B5
:100D400004DAC85D3528A8BF392000DA3020CA1976
:100D5000521E00E05B1E12F80159491E8542F9D06F
:100D6000392802D1C85D401CC855002902D57F1E14
:100D70005B1C761C36B29DF830100B9800961BB2A7
:100D80003A4600F003F80DB0BDE8F08F2DE9F047CA
:100D900086B006468A4690461D4600F088FD406AA9
:100DA000376B90F80090012D02DA01250FF25828D8
:100DB0004AF02000BDF93840662808BF641C13D0F3
:100DC000672840F0878014F1040F72DBBC4270DAB0
:100DD00096F83800641C000702D4BD42B8BF2F4605
:100DE00024B23F1B48BF0027F068B16924B2012C30
:100DF00021DA30234A1C0B54012F03DA96F83810FD
:100E0000090702D502F80090521CB261E742B8BF50
:100E10007C4224B26142E7197162AF42B8BF3D46DD
:100E20002DB2F5612A46B3694146181800F0CAF997
:100E3000781BB062ADE00818A54216DA2A46414692
:100E400000F0C0F9B1696918B161601B7062012FCF
:100E500003DA96F83800000705D5F06801F800902D
:100E6000F069401CF061B76293E02246414600F011
:100E7000A9F9B06920182D1B012F03DA96F8381054
:100E8000090703D5F16800F80190401C2DB2B0614C
:100E9000AF42B8BF3D46F3682DB22A4604EB0801C5
:100EA000C01800F08FF9B0692818B061781B706223
:100EB0006FE0BD4204DA96F83810090758BF2F4694
:100EC0007F1E48BF0027BAF1670F0CBF4FF0650ABD
:100ED0004FF0450AB169F06818F8013B0B544A1C01
:100EE000012F05DA96F83810090758BFB26115D5F9
:100EF00002F80090531CB361012F0FDB6D1E2DB261
:100F0000AF42B8BF3D462DB22A464146181800F000
:100F100059F9B0692818B061781B7062B069F1683E
:100F200000EB0108200008F801AB03D42B2008F8DF
:100F3000010B03E02D2108F8011B6442002502AFDC
:100F400008E00A2200A800F0CBFC019807F8010B8A
:100F50006D1C009C21B20129F3DA022D06DA4AF059
:100F60002000652804BF302008F8010B4DB930205F
:100F700008F8010B07E06D1E02A8285C303008F865
:100F8000010B012DF7DAB069F1684018A8EB0000F9
:100F9000F06196F8380000F0140010280DD1706947
:100FA000B1690818716A0818F1690818B16A081857
:100FB000716B8842BCBF081A306206B0BDE8F0878A
:100FC000F8B504460D4616461F46002004E0E86AC0
:100FD000401CE8627F1E002047B116F8011BA8687C
:100FE000A047A8600028F2D14FF0FF30F2BD00000A
:100FF000686A6C747A4C00006E616E004E414E005F
:10100000696E6600494E4600300050F8041B61B11D
:1010100050F8042BD30744BFA9F101039A18002309
:1010200042F8043B091FFAD1EFE770470278C9B2D2
:101030008A421AB11CBF10F8012FF9E718BF00202F
:101040007047000000F10103810704D010F8011B74
:1010500089B18107FAD10268B2F10131914311F0EF
:10106000803F04BF50F8042FF6E710F8011B11B1C0
:1010700010F8011BFBE7C01A70470000C9B28307D4
:1010800006D0521E22D310F8013B9942F7D11FE03F
:10109000083A13D302F1040241EA012141EA014175
:1010A00050F8043B121F21BF4B40A3F1013C2CEA36
:1010B000030C1CF0803FF3D0C9B2001F083210F8B7
:1010C000013B521E28BF91EA030FF8D818BF012038
:1010D000401E70471B4213D1094236D12AB18446C3
:1010E000B0FBF2F002FB10C2704700F001BCFCD371
:1010F0000022002370470B000200002100207047EF
:10110000904271EB030CF6D370B5B1FA81F4B3FAE7
:1011100083F52C1BA340C4F1200532FA05F63343B6
:10112000A2405FF00046E64002E05B085FEA320260
:10113000841A71EB030524BF204629467641F4D377
:1011400002000B003000002170BD012ACFD970B51C
:10115000140C20D0B1FA81F4B2FA82F5C4F1200463
:101160006419B4F12006D6D3B2405FF00044F440D5
:10117000002502E052085FEA3303C61A71EB020E43
:1011800024BF3046714664416D41F3D302000B0029
:101190002000290070BD0C46B1FBF2F102FB1145A5
:1011A0002D0445EA1045B5FBF2F402FB145580B25C
:1011B00040EA0545B5FBF2F002FB105240EA04405C
:1011C00070BD000062B38B0708D0521E11F8013BBE
:1011D00000F8013B00F024808B07F6D1830740F034
:1011E000208000BF103A07D330B4B1E83810103A6D
:1011F000A0E83810F9D230BC530724BFB1E808107A
:10120000A0E8081044BF51F8043B40F8043BD20763
:1012100024BF31F8022B20F8022B44BF0B78037057
:101220007047083A07D3B1E80810083A40F8043B81
:1012300040F804CBF7D25307E4E730B4436803F037
:10124000004201211B031B0B436004BF0368002BFA
:1012500008D10DE00368DD0F45EA440444605B00FB
:101260000360491E4468E302F4D523031B0B43606B
:1012700043681A434260084630BC70474FF4001C74
:101280001CEB410F94BF1CEB430F09E041EA030C38
:1012900050EA4C0C52EA0C0C03D2994208BF90421F
:1012A000704714BF8B42824270470000B0B581EA9C
:1012B000030C0CF0004C40F2FF7515EA11541DBFF1
:1012C00015EA1357AC42AF4239E0E41923EA45531B
:1012D00043F48013C90241F0004141EA505EC70265
:1012E0001100A7FB020200284FF00000EEFB0120D6
:1012F0004FF00001E3FB072118BF42F00102401844
:1013000000214941E3FB0E01A4F580640F0302D2E2
:1013100052004041494154F101046CDD470872F12B
:10132000004250F1000051EB0451A1F580115CBF67
:1013300041EA0C01B0BD4CEA05510020B0BD05EA00
:101340001357AC4214BFAF4241E050EA410E1CBFFC
:1013500052EA430E02E061460020B0BD24423C4404
:101360001BD15FEA070EF6D0090302BF0146002039
:10137000AEF1140EB1FA81F7AEEB070401FA07FEE5
:101380000C37C7F1200100FA07F7C8404EEA000EFB
:1013900023EA455343F48013A2E733F00043B3FA42
:1013A00083F704BFB2FA82FE77440B3FE41BB7F128
:1013B000200E2FBF02FA0EF3BB40C7F1200E22FA17
:1013C0000EFE38BF43EA0E03BA40641C82E750EABF
:1013D000410E14BF52EA430E6FF000014FF40017A4
:1013E00017EB430F8ABF194617EB410FB5E74CEADD
:1013F00005510020B0BDD4F10104B4F120070FDA8B
:10140000C4F12007520828BF42F0010210FA07F584
:1014100001FA07F7E1BF2A43E0403843E1400FE01B
:10142000352C98DCC7F1200452EA400220FA07F27A
:1014300018BF42F0010231FA07F0A1400A4300212F
:1014400072F1004250F1000051EB0C01B0BD000000
:10145000F0B540F2FF7581EA030C0CF0004C15EA80
:1014600011541DBF15EA1357AC42AF42E5E0BC4131
:10147000C1F31301C3F31303801A994143F480139A
:1014800004D2641E4000494180185941C90241EA12
:101490005051B1FBF3F603FB1611A2FB0675D7EB17
:1014A000C020A94102D2761E80185941C90241EAE2
:1014B0005051B1FBF3FE03FB1E11A2FB0E75D7EBDF
:1014C000C020A94103D2AEF1010E80185941890212
:1014D00041EA9051760546EA8E2EB1FBF3F603FB06
:1014E0001611A2FB0675D7EB8020A94102D2761E09
:1014F00080185941C90241EA50514EEA060EB1FB2B
:10150000F3F603FB1611A2FB0675D7EBC020A94129
:1015100002D2761E80185941C90241EA5051B1FBEE
:10152000F3F703FB1711A2FB0735D3EBC020A9414A
:1015300067F100070CBF004247F0010766F3D527AB
:101540004FEA1E31B80814F5806412DDBD0775F14D
:10155000004250EB0E5051EB045111F5801F5CBF5F
:1015600041EA0C01F0BD4CF07F6141F0E041002008
:10157000F0BDBD076D0840EA0E5041F48011D4F172
:101580000104B4F120060ADAC4F120060200E040AA
:1015900001FA06F3E1401843B24015430EE0342C43
:1015A00013DCC6F1200445EA40056D0820FA06F276
:1015B000154321FA06F0A1400D43002175F10042C8
:1015C00050F1000051EB0C01F0BD00205FEA0C016E
:1015D000F0BDCFB992185B41B3FA83F704BFB2FAFA
:1015E00082F6BF190B3FB7F120062FBF02FA06F3B0
:1015F000BB40C7F1200622FA06F638BF3343BA4093
:101600001CB1E419641E33E77F4231F00041B1FAA6
:1016100081F404BFB0FA80F6A4190B3CB4F12006A3
:101620002FBF00FA06F1A140C4F1200620FA06F609
:1016300038BF3143A0403C1B1AE7AC421ABF05EA51
:101640001357AF4212E050EA41061CBF52EA43066C
:10165000BFE750EA4107304661461CBF41EA0551E9
:10166000F0BD52EA430C08BFC143F0BD00204FF467
:10167000001616EB410F98BF16EB430F08BF16EB91
:10168000410F24BFC14305E016EB430F0CBF614679
:101690004CEA0551F0BD0000400D40EAC120490070
:1016A00080F00D8040F00040490DA1F58061491C9B
:1016B00005D4D1F11F0154BFC840C01770474FF087
:1016C00000007047010040F10980F446404200F0FC
:1016D00005F851F000416047010000BF09D0B0FAA1
:1016E00080F18840C91CC1F58461090501EBD02156
:1016F0004005704770B44FF0004591EA030F44BFB6
:101700006B4000F0F7B800BF841A71EB030604D2F7
:101710006E40001BB141121973414FF4001C1CEBC9
:10172000410F34BF7CEB430684E00C0DA4EB135651
:10173000362E7DDC012E43DC45EAC32343EA5253B7
:1017400012BFD20292025B08240545EAC12141EA98
:101750005051D2EBC020994125D407D1B0FA80F680
:1017600010FA06F164D00020203608E0B1FA81F6C4
:10177000B140C6F1200220FA02F21143B0404FEA14
:10178000F474B4EB465434F001064FEA74040AD8FA
:10179000D6F50016760D04F00044F04061FA06F22A
:1017A0005040F1404840C00A40EA415021F0004119
:1017B00028BF5FEA500550F1000044EBD12137E02B
:1017C00045EAC323DB0A45EAC121C90AB6F120056F
:1017D0000EDD42EA0242120CC5F1200603FA06F6BB
:1017E000EB4042EA06056D42984161F100010DE0CF
:1017F00062FA06F5F240554063FA06FC82EA0C02F2
:10180000F3405A406D42904161EB030111F4801F97
:1018100005D1641E620502D06D004041494121F4AA
:101820008011430875F1004350F1000041EB045171
:1018300070BC70471CEB410F15D223F0004352EAF5
:1018400043060BD04FEA4C0CBCEB410F04D80C0DF7
:10185000661E342EB7DDEBE7801A994150EA410647
:1018600008BF0021E4E708BF1CEB430F28BF6FF05F
:101870000001DDE780B5134800F0A6F80FF248013B
:10188000016041608160C1600161416181610FF26D
:101890003C0242628162C162016341630FF2300225
:1018A00082630FF23402C2630164416401BD10B56A
:1018B000044800F089F80446206808B9FFF7DAFF09
:1018C000204610BD0855FF1F000000002E0000003C
:1018D00066616C736500000074727565000000003D
:1018E00091FBF2F303FB1211C0E9003170470000D5
:1018F00070470000841A71EB030603D2001BB1414C
:10190000121973414FF4001C1CEB410F34BF7CEBE8
:10191000430443E00C0DA4EB1356352E50DC45EA8E
:10192000C323DB0A45EAC121C912B6F120050DDD4A
:1019300063FA05F6EB4086EA0305124218BF45F04C
:101940000105C01851F100010CD213E062FA06F54E
:10195000F2405540F3415A40B340F3405A4080189A
:10196000594107D349085FEA30005FEA350528BFCF
:1019700045F0010501F58011420875F1004250F172
:10198000000041EB045170BC4FF4001C1CEB410FF4
:1019900038BF70470020090D090570471CEB410F47
:1019A00010D252EA43060BD0BCEB410F05D80C0D08
:1019B000AB43661E342EB5DD02E0AB4380185941BF
:1019C00070BC704770BC704770470000000000009A
:1019D0000000000000000000000000000000000007
:1019E000000000000000000000004E6F6E4D6173AB
:1019F0006B61626C6500000000486172644661754D
:101A00006C740000000000004D656D4D616E6167F3
:101A1000656D656E7400004275734661756C740087
:101A200000000000000055736167654661756C74C5
:101A300000000000000000000000000000000000A6
:101A40000000000000000000000000000000000096
:101A50000000000000000000000000000000000086
:101A60000000000000000000000000000000000076
:101A700000535643616C6C00000000000000000041
:101A800044656275674D6F6E69746F720000000087
:101A90000000000000000000000000000000506591
:101AA0006E6453560000000000000000005379737C
:101AB0005469636B0000000000000000444D413099
:101AC0000000000000000000000000444D41310013
:101AD00000000000000000000000444D4132000002
:101AE000000000000000000000444D4133000000F1
:101AF0000000000000000000444D413400000000E0
:101B000000000000000000444D41350000000000CE
:101B1000000000000000444D4136000000000000BD
:101B20000000000000444D413700000000000000AC
:101B300000000000444D413800000000000000009B
:101B4000000000444D41390000000000000000008A
:101B50000000444D41313000000000000000000052
:101B600000444D4131310000000000000000000041
:101B7000444D4131320000000000000000000044EC
:101B80004D41313300000000000000000000444DD2
:101B900041313400000000000000000000444D41CD
:101BA000313500000000000000000000444D415F9E
:101BB0004572726F720000000000004D434D00003E
:101BC000000000000000000000004654464C0000E9
:101BD000000000000000000000526561645F436F78
:101BE0006C6C6973696F6E004C56445F4C565700BD
:101BF000000000000000004C4C57000000000000F6
:101C00000000000000005761746368646F670000A3
:101C10000000000000524E470000000000000000DD
:101C200000000000493243300000000000000000C6
:101C300000000049324331000000000000000000B5
:101C40000000535049300000000000000000000078
:101C50000053504931000000000000000000000067
:101C60005350493200000000000000000000004313
:101C7000414E305F4F525F4D425F62756600434197
:101C80004E305F4275735F4F666600000043414E01
:101C9000305F4572726F72000000000043414E30A9
:101CA0005F54785F5761726E696E6743414E305F73
:101CB00052785F5761726E696E6743414E305F576D
:101CC000616B655F557000000052657365727665E3
:101CD00064353100000000005265736572766564FA
:101CE0003532000000000043414E315F4F525F4DDE
:101CF000425F6275660043414E315F4275735F4FCC
:101D0000666600000043414E315F4572726F72009B
:101D10000000000043414E315F54785F5761726E9E
:101D2000696E6743414E315F52785F5761726E69E9
:101D30006E6743414E315F57616B655F55700000C0
:101D400000526573657276656435390000000000E5
:101D50005265736572766564363000000000005588
:101D6000415254305F52585F5458000000005541B2
:101D70005254305F4552520000000000005541525D
:101D800054315F52585F545800000000554152547E
:101D9000315F45525200000000000055415254325C
:101DA0005F52585F54580000000055415254325F52
:101DB00045525200000000000055415254335F521A
:101DC000585F54580000000055415254335F45524B
:101DD0005200000000000055415254345F52585FD9
:101DE00054580000000055415254345F455252008F
:101DF000000000000055415254355F52585F54585E
:101E00000000000055415254355F45525200000019
:101E100000000041444330000000000000000000CA
:101E200000004144433100000000000000000000B9
:101E300000434D5030000000000000000000000092
:101E4000434D50310000000000000000000000433E
:101E50004D50320000000000000000000000465419
:101E60004D30000000000000000000000046544D0E
:101E700031000000000000000000000046544D3218
:101E80000000000000000000000000434D5400006E
:101E90000000000000000000000052544300000059
:101EA0000000000000000000005265736572766556
:101EB0006438330000000000504954300000000036
:101EC00000000000000000504954310000000000F4
:101ED00000000000000050495432000000000000E3
:101EE00000000000005049543300000000000000D2
:101EF00000000000504442300000000000000000DC
:101F000000000055534230000000000000000000B7
:101F1000000055534244434400000000000000000C
:101F200000454E45545F313538385F54696D6572F0
:101F3000454E45545F5472616E736D69740000457F
:101F40004E45545F52656365697665000000454EF5
:101F500045545F4572726F720000000000493253B1
:101F6000300000000000000000000000534448431F
:101F70000000000000000000000000444143300069
:101F80000000000000000000000044414331000058
:101F90000000000000000000005453493000000021
:101FA00000000000000000004D434700000000005A
:101FB000000000000000004C5054696D6572000084
:101FC0000000000000005265736572766564313070
:101FD0003200000000504F52544100000000000049
:101FE00000000000504F525442000000000000006A
:101FF000000000504F525443000000000000000059
:102000000000504F52544400000000000000000047
:1020100000504F5254450000000000000000000036
:102020005265736572766564313038000000005285
:102030006573657276656431303900000000526561
:10204000736572766564313130000000005265734B
:102050006572766564313131000000005265736548
:10206000727665643131320000000052657365722A
:102070007665643131330000000052657365727615
:102080006564313134000000005265736572766515
:102090006431313500000000526573657276656405
:1020A0003131360000000052657365727665643127
:1020B0003137000000005265736572766564313116
:1020C00038000000005265736572766564313139FD
:1020D00000000000008003400090034000800B409F
:1020E00000900B4000F00F4040F00F4080F00F4098
:1020F000C0F00F4000F10F4066000A1D32000701DA
:10210000640007106E000406780004088200040AC8
:102110008C00040C9600040EA0000410AA00041207
:10212000B4000414BE000416C8000418D200041A37
:10213000DC00041CE100041DE600041EEB00041F8B
:10214000F4000317FA000318130101062C0102140E
:10215000000109080090044000A0044000B00440C1
:1021600000C0044000D0044000C0024000D0024043
:1021700000C00A4000A0064000B0064000C0064073
:1021800000D0064000A00E4000B00E40000000004D
:1021900000000000010100006A6E6B6C676D4E4F1D
:1021A000343536373443101001000000344310102A
:1021B00001000000010000000DC1110009030CD056
:1021C0001240173F185019031A783200A00A63E032
:1021D000ACFF650C6600670029142C1E2A007E0CDB
:1021E0007F16802A814E8261836F847B8586868EEE
:1021F000879788A489AF8AC58BD78CE88D204A0041
:10220000491347084B144C17460522992303A6048B
:102210009B009C57AB069E119F02000031000000FE
:10222000020401019854FF1FE854FF1F9854FF1F38
:102230009854FF1F9854FF1FA10CFF1F880CFF1F0D
:10224000000000000000000000000000000000008E
:10225000000000000000000000000000000000007E
:1022600000E010080810E000000F102020100F0000
:10227000001010F8000000000020203F2020000087
:10228000000000000000000000000000000000004E
:10229000000000000000000000000000000000003E
:1022A000000000000000000000000000000000002E
:1022B000000000000000000000000000000000001E
:1022C000000000000000000000000000000000000E
:1022D00000000000000000000000000000000000FE
:1022E00000000000000000000000000000000000EE
:1022F00000000000000000000000000000000000DE
:1023000000000000000000000000000000000000CD
:1023100000000000000000000000000000000000BD
:1023200000000000000000000000000000000000AD
:10233000000000000000000000000000000000009D
:10234000000000000000000000000000000000008D
:10235000000000000000000000000000000000007D
:10236000000000000000000000000000000000006D
:10237000000000000000000000000000000000005D
:10238000000000000000000000000000000000004D
:10239000000000000000000000000000000000003D
:1023A000000000000000000000000000000000002D
:1023B000000000000000000000000000000000001D
:1023C000000000000000000000000000000000000D
:1023D00000000000000000000000000000000000FD
:1023E00000000000000000000000000000000000ED
:1023F00000000000000000000000000000000000DD
:1024000000000000000000000000000000000000CC
:1024100000000000000000000000000000000000BC
:1024200000000000000000000000000000000000AC
:10243000000000000000000000000000000000009C
:10244000000000000000000000000000000000008C
:10245000000000000000000000000000000000007C
:10246000000000000000000000000000000000006C
:10247000000000F800000000000000333000000001
:1024800000100C06100C0600000000000000000008
:1024900040C07840C0784000043F04043F0404007A
:1024A000007088FC08300000001820FF211E00008A
:1024B000F008F000E018000000211C031E211E009F
:1024C00000F00888700000001E2123241927211025
:1024D00010160E00000000000000000000000000C8
:1024E000000000E01804020000000007182040006F
:1024F00000020418E000000000402018070000005F
:10250000404080F0804040000202010F01020200C2
:10251000000000F0000000000101011F01010100A6
:10252000000000000000000080B07000000000000B
:102530000000000000000000000101010101010194
:10254000000000000000000000303000000000002B
:102550000000000080601804006018060100000000
:1025600000E010080810E000000F102020100F00FD
:10257000001010F8000000000020203F2020000084
:1025800000700808088870000030282422213000DC
:1025900000300888884830000018202020110E00E4
:1025A0000000C02010F8000000070424243F24008D
:1025B00000F80888880808000019212020110E0062
:1025C00000E0108888180000000F112020110E0074
:1025D00000380808C83808000000003F000000006C
:1025E0000070880808887000001C222121221C002D
:1025F00000E010080810E0000000312222110F0056
:10260000000000C0C00000000000003030000000EA
:10261000000000800000000000008060000000005A
:102620000000804020100800000102040810200073
:1026300040404040404040000404040404040400BE
:102640000008102040800000002010080402010053
:10265000007048080808F000000000303601000053
:10266000C030C828E810E0000718272423140B0006
:102670000000C038E0000000203C23020227382080
:1026800008F8888888700000203F202020110E0064
:10269000C03008080808380007182020201008005B
:1026A00008F808080810E000203F202020100F0044
:1026B00008F88888E8081000203F20202320180010
:1026C00008F88888E8081000203F20000300000078
:1026D000C03008080838000007182020221E020019
:1026E00008F808000008F808203F210101213F20D8
:1026F000000808F8080800000020203F2020000003
:1027000000000808F8080800C08080807F000000F2
:1027100008F888C028180800203F2001263820002B
:1027200008F8080000000000203F20202020300092
:1027300008F8F800F8F80800203F003F003F2000AC
:1027400008F830C00008F808203F200007183F00B4
:10275000E01008080810E0000F10202020100F00E3
:1027600008F808080808F000203F210101010000D6
:10277000E01008080810E0000F18242438504F001B
:1027800008F8888888887000203F2000030C3020DB
:1027900000708808080838000038202121221C0019
:1027A000180808F8080818000000203F2000000062
:1027B00008F808000008F808001F202020201F004B
:1027C0000878880000C83808000007380E010000AB
:1027D000F80800F80008F800033C0700073C030075
:1027E000081868808068180820302C03032C3020DB
:1027F0000838C800C83808000000203F200000004A
:1028000010080808C83808002038262120201800A1
:10281000000000FE020202000000007F4040400075
:10282000000C30C000000000000000010638C000AD
:1028300000020202FE000000004040407F00000055
:10284000000004020202040000000000000000007A
:102850000000000000000000808080808080808078
:102860000002020400000000000000000000000060
:1028700000008080808000000019242222223F2056
:1028800008F8008080000000003F112020110E0099
:102890000000008080800000000E11202020110028
:1028A000000000808088F800000E112020103F20DA
:1028B0000000808080800000001F2222222213005E
:1028C000008080F0888888180020203F20200000A9
:1028D0000000808080808000006B9494949360005E
:1028E00008F8008080800000203F210000203F2069
:1028F00000809898000000000020203F2020000069
:10290000000000809898000000C08080807F000058
:1029100008F8000080808000203F24022D30200035
:10292000000808F8000000000020203F20200000E0
:102930008080808080808000203F20003F20003FFA
:102940008080008080800000203F210000203F2008
:102950000000808080800000001F202020201F00B9
:10296000808000808000000080FFA12020110E00E8
:102970000000008080808000000E112020A0FF80D9
:10298000808080008080800020203F212000010086
:1029900000008080808080000033242424241900DB
:1029A000008080E0808000000000001F20200000E8
:1029B0008080000000808000001F202020103F2029
:1029C000808080000080808000010E3008060100B9
:1029D00080800080008080800F300C030C300F005E
:1029E00000808000808080000020312E0E31200089
:1029F000808080000080808080818E7018060100B9
:102A000000808080808080000021302C22213000D6
:102A100000000000807C020200000000003F4040F7
:102A200000000000FF00000000000000FF000000A8
:102A30000002027C800000000040403F00000000D7
:102A40000006010102020404000000000000000072
:102A50002DE9FD4F96B00C00DFF8480600684FF4F2
:102A60007A7148431899B0FBF1F705A8DFF83816DA
:102A70004022FEF7B7FB04A8DFF830160A680260B0
:102A8000002001905FF0FF399DF95800002841D1E6
:102A9000DFF81C06006850F48050DFF81416086058
:102AA0004FF400710F2000F00FFB4FF40071102065
:102AB00000F00AFB4FF40071112000F005FBE00765
:102AC00004D54FF400710E2000F0FEFAA00704D5E3
:102AD0004FF40071432000F0F7FA600704D54FF47B
:102AE0000071422000F0F0FA200704D54FF4007185
:102AF000412000F0E9FAE00604D54FF400714020CF
:102B000000F0E2FAA0066CD54FF44071372000F0D7
:102B1000DBFA66E09DF95800012833D1DFF8900513
:102B2000006850F40050DFF8881508604FF4007119
:102B30002B2000F0C9FA4FF40071302000F0C4FAE5
:102B40004FF40071312000F0BFFAE00704D54FF4D4
:102B500000712A2000F0B8FAA00704D54FF40071E4
:102B6000802000F0B1FA600704D54FF40071852091
:102B700000F0AAFA200734D54FF40071862000F047
:102B8000A3FA2EE09DF95800022825D1DFF824058C
:102B9000006850F48050DFF81C1508604FF4007195
:102BA000352000F091FA4FF40071362000F08CFAD5
:102BB0004FF40071372000F087FAE00704D54FF496
:102BC0000071342000F080FAA0070AD54FF400719C
:102BD0006F2000F079FA04E07B21DFF8DC0400F0DC
:102BE000E0FA9DF95800DFF8D41451F8200040F6BF
:102BF000014101609DF95800DFF8C01451F8200030
:102C0000DFF8BC14C1629DF95C00002840F0A1808F
:102C10009DF95800DFF8A41451F82000DFF8A4143F
:102C2000016000200500EDB2102D20DA0020060022
:102C3000F6B2042E19DAEDB205A850F82500F6B266
:102C400004A9715C48438246BAEB070000F03CFBE4
:102C50008046C84507D2C146EDB20195F6B202964C
:102C6000B9F1000F03D0761CE2E76D1CDBE7DFF85B
:102C7000340400684FF47A714843019905AA52F868
:102C80002110029A04ABD25C5143B0FBF1F00390E7
:102C9000DFF8100400684FF47A7148430399B0FBE1
:102CA000F1F0400807005FF0FF3081460F208DF8FB
:102CB000010003208DF80200002083465FFA8BFBA1
:102CC000BBF1100F28DA01201BF101018840824678
:102CD000B7FBFAF0401E40088DF800009DF8000098
:102CE000042816DA9DF800004000401C00FB0AFA98
:102CF000BAEB070000F0E8FA8046C84509D2C146A1
:102D00008DF801B09DF800008DF80200B9F1000FB8
:102D100002D01BF1010BD1E70298000410F44030FF
:102D2000019911F00F0108439DF80110090311F4F6
:102D3000704108439DF80210890511F440010843D1
:102D400050F060509DF95810DC4A52F82110C860CC
:102D500007E09DF95800D94951F820005FF07851FB
:102D6000C1609DF95800D54951F82000006840081D
:102D700040009DF95810D14A52F82110086003987C
:102D800019B0BDE8F08FF0B4049C002540B2CB4EE2
:102D900056F82060CA4FF76240B2C84E56F820601D
:102DA000366856F4406640B2C44F57F820703E6013
:102DB00040B2C24E56F82060F66AB603E6D400264A
:102DC0003500661EB5422FD249B20E0416F47C16A9
:102DD000AF5C3E4356F0004640B2B84F57F8207003
:102DE0007E6340B2B54E56F82060F66AB603F8D559
:102DF000002B06D040B2B14E56F82060B66BEE54B0
:102E000004E040B2AD4E56F82060B66B40B2AB4E17
:102E100056F82060F66A56F4003640B2A74F57F8CD
:102E20002070FE626D1CCCE749B20E0416F47C16CD
:102E3000AF5C3E4356F0006640B2A04F57F820709A
:102E40007E6340B29D4E56F82060F66AF600F8D5D3
:102E500040B29A4E56F82060F66AB603F8D5002BB9
:102E600006D040B2954E56F82060B66BEE5404E0A2
:102E700040B2924E56F82060B66B40B28F4E56F874
:102E80002060F66A56F4003640B28C4F57F8207036
:102E9000FE62F0BC70472DE9F041069C079D089E3C
:102EA000099F5FF0000C40B2DFF810E25EF820E00E
:102EB000DFF80C82CEF82C8040B2DFF800E25EF83A
:102EC00020E0DEF800E05EF4406E40B2DFF8EC8116
:102ED00058F82080C8F800E040B2DFF8E0E15EF882
:102EE00020E0DEF82CE05FEA8E3EDCD45FF0000EDE
:102EF000F446B44541D249B25FEA014E1EF47C1E4D
:102F00001CF8028058EA0E0E5EF0004E40B2DFF868
:102F1000AC8158F82080C8F834E040B2DFF89CE17A
:102F20005EF820E0DEF82CE05FEA8E3EF5D5002B5F
:102F300009D040B2DFF884E15EF820E0DEF838E046
:102F40000CF803E006E040B2DFF870E15EF820E044
:102F5000DEF838E040B2DFF864E15EF820E0DEF849
:102F60002CE05EF4003E40B2DFF8508158F820803B
:102F7000C8F82CE01CF1010CBBE75FF0000EF44632
:102F8000B7F1010EF44541D249B25FEA014E1EF499
:102F90007C1E1CF8048058EA0E0E5EF0004E40B213
:102FA000DFF8188158F82080C8F834E040B2DFF824
:102FB0000CE15EF820E0DEF82CE05FEA8E3EF5D50D
:102FC000002D09D040B2DFF8F4E05EF820E0DEF832
:102FD00038E00CF805E006E040B2DFF8E0E05EF82B
:102FE00020E0DEF838E040B2DFF8D0E05EF820E024
:102FF000DEF82CE05EF4003E40B2DFF8C08058F806
:103000002080C8F82CE01CF1010CB9E749B25FEA56
:10301000014E1EF47C1E1CF8048058EA0E0E5EF071
:10302000006E40B2DFF8948058F82080C8F834E091
:1030300040B2DFF888E05EF820E0DEF82CE05FEADE
:10304000CE0EF5D540B2DFF874E05EF820E0DEF891
:103050002CE05FEA8E3EF5D5002D09D040B2DFF8B6
:103060005CE05EF820E0DEF838E00CF805E006E011
:1030700040B2DFF848E05EF820E0DEF838E040B229
:10308000DFF838E05EF820E0DEF82CE05EF4003E89
:1030900040B2DFF8288058F82080C8F82CE0BDE85E
:1030A000F0810000884AFF1FA071000090760000A8
:1030B0003C8004403080044038730000AC0BFF1F9C
:1030C00000000A1A00003F8010B4294A12684FF429
:1030D0000073C0B24409A3401A43254B1A60C0B222
:1030E0004211244B53F82220012310F01F04A34067
:1030F000C2F8A030C0B210F01F02C0B243111D4C84
:1031000054F8233043F8221010BC704710B4184A0A
:1031100012684FF40073C0B24409A3401A43144B21
:103120001A60C0B24211134B53F82220012310F051
:103130001F04A340C2F8A03031F4E061C0B210F027
:103140001F02C0B243110B4C54F8233053F8222015
:1031500012F4E0621143C0B210F01F02C0B243117A
:10316000044C54F8233043F8221010BC7047000080
:1031700038800440980BFF1FDFF800F0F90CFF1FA8
:10318000DFF800F0D50CFF1FBFF34F8F46480068F3
:1031900010F4E0604549084343490860BFF34F8F8E
:1031A000FEE738B504000D00002000F091F82A0079
:1031B00021003F4800F0C4F8002000F0A6F84FF4CA
:1031C0007A7000F0EAF8F2E738B504000D0021004B
:1031D00049B2012000F004FA200032BD10B50024ED
:1031E000042000F017FA042000F04AFA002841D128
:1031F000002000F06DF8042000F042FA012801D10F
:1032000001200400002000F080F82A4800F098F81F
:103210004FF4FA7000F0C1F8E4B2012CEBD10420B5
:1032200000F02EFA0028E6D1042000F029FA002848
:1032300006D1002000F069F8642000F0AEF8F3E752
:10324000042000F01DFA012806D1002000F05DF8EE
:10325000322000F0A2F8F3E7174800F071F8FFF70A
:103260008FFF642000F099F80020FFF785FFFFF73B
:103270008BFFC0E710BD10B510480468012000F0B6
:1032800027F8012000F041F8E4B20F200C4900FBC0
:103290000412E4B221000B4800F052F84FF47A70A7
:1032A00000F07BF8EDE700000CED00E00400FA050B
:1032B000D47300003C7500005074000004ED00E081
:1032C0001004FF1FE0710000002848BF4042704713
:1032D00010B5040064B2042C07DA0122012164B2A3
:1032E0001648205C00F0E4F90EE004200400200001
:1032F000441E40B2002807D00122012164B20F48C9
:10330000205C00F0D5F9F2E710BD10B5040064B2FE
:10331000042C05DA64B20948205C00F020FA0CE0C5
:10332000042004002000441E40B2002805D064B2EE
:103330000248205C00F013FAF4E710BDE40BFF1F15
:103340000EB400B582B003A90091024600AB012182
:10335000034878440A30FDF75FF806BC5DF810FBBF
:10336000B941000010B50400002C15D0B4F1807FE5
:1033700003D329210F48FFF714FF0F4800210160F4
:103380000E4804600E48002101600B4805210160D1
:1033900009480068C003FBD510BD10B5040020002B
:1033A000441E002804D007480068FFF7DBFFF6E75B
:1033B00010BD00001C72000010E000E014E000E00E
:1033C00018E000E0804AFF1F2DE9F84304000D00DB
:1033D00064B2002C08D0022C2CD018D3042C4FD06F
:1033E0003BD3052C5FD071E0DFF81002006850F489
:1033F0008060DFF8081208604FF440716620FFF724
:1034000063FE4FF440716720FFF75EFE5EE0DFF879
:10341000EC01006850F40060DFF8E01108604FF440
:1034200040714320FFF750FE4FF440714420FFF7F6
:103430004BFE4BE0DFF8C401006850F48050DFF829
:10344000BC1108604FF440716320FFF73DFE4FF45C
:1034500040716220FFF738FE38E0DFF8A001006815
:1034600050F40050DFF8941108604FF44071502080
:10347000FFF72AFE4FF440715120FFF725FE25E0AB
:10348000DFF87C01006850F48060DFF87411086098
:103490004FF440719920FFF717FE4FF440719820C8
:1034A000FFF712FE12E0DFF85801006850F40060E8
:1034B000DFF84C1108604FF440718920FFF704FEDB
:1034C0004FF440718820FFF7FFFDFFE764B2DFF89B
:1034D000340150F82400C07810F0F30064B2DFF833
:1034E000241151F82410C87064B2DFF8180150F8A4
:1034F000240064B2DFF80C1151F82410897881702F
:1035000064B2002C02D064B2012C07D1DFF8F800BD
:1035100000684FF47A714843814606E0DFF8EC001A
:1035200000684FF47A71484381462801B9FBF0F0F6
:103530000600B6B2B6F5005F02DB41F6FF7006008A
:10354000B9FBF5F0B6B2B0EB06100700BFB2202F02
:1035500003DBDC212E48FFF724FE64B2294850F833
:103560002400007810F0E0008046B6B2300A10F077
:103570001F0050EA080064B2224951F82410087074
:1035800064B2204850F82400467064B21D4850F8D8
:103590002400807A10F0E000804664B2194850F8A8
:1035A000240017F01F0151EA0801817264B2154826
:1035B00050F82400007C50F0880064B2114951F8A2
:1035C0002410087464B20F4850F82400C07850F0FA
:1035D0000C0064B20B4951F82410C870BDE8F183A7
:1035E00040B2084A52F8202012791206F8D540B2AB
:1035F000044A52F82020D171704700003480044002
:1036000028800440B80BFF1F804AFF1F884AFF1F15
:103610006073000010B5040064B2082C0DDA0022BB
:10362000002164B22148205C00F042F8032164B21A
:103630001E48205CFFF76AFD14E00820040020000B
:10364000441E40B200280DD00022002164B2174869
:10365000205C00F02DF8032164B21448205CFFF7D1
:1036600055FDECE710BD10B5040064B20F48205CB6
:1036700000F091F8002801D1002000E0012010BDE9
:1036800010B50400200040B2FFF7EDFF00280AD17A
:103690000A20FFF782FE200040B2FFF7E4FF002877
:1036A00001D1002000E0012010BD0000DC0BFF1F55
:1036B00070B504000D0016004FF480712000C0B2F8
:1036C000FFF702FD6DB2002D11D1E4B26011404947
:1036D00051F82000E4B261113D4A52F821104969C5
:1036E000012214F01F039A409143416136E0E4B295
:1036F0006011374951F82000E4B26111344A52F8A0
:1037000021104969012214F01F039A4011434161BD
:10371000F6B2002E11D1E4B260112D4951F820000B
:103720000068012114F01F0291408843E4B2611146
:10373000274A52F82110086010E0E4B260112449D1
:1037400051F820000068012114F01F029140084345
:10375000E4B261111E4A52F82110086070BD10B524
:103760000400E4B260111A4951F82000406914F0D5
:103770001F01C840C00703D47B211648FFF711FD85
:10378000E4B26011124951F82000012114F01F0227
:103790009140C16010BD10B50400E4B260110C4945
:1037A00051F82000406914F01F01C840C00703D53C
:1037B0008C210848FFF7F5FCE4B26011044951F888
:1037C0002000006914F01F01C84010F0010010BD76
:1037D000280BFF1FC072000038B504000D0064B252
:1037E000002C06D0022C69D04CD3032C00F0828030
:1037F000C7E0DFF84C05006850F08070DFF8401536
:1038000008606DB2002D0BD0022D15D00ED3042D03
:103810001ED017D3062D27D020D3072D2AD02FE076
:103820004FF480614120FFF74FFC2AE04FF44071D4
:103830000420FFF749FC24E04FF440710520FFF716
:1038400043FC1EE04FF440710620FFF73DFC18E0FA
:103850004FF480616420FFF737FC12E04FF4806181
:103860006520FFF731FC0CE04FF480616620FFF724
:103870002BFC06E04FF480616720FFF725FC00E099
:103880007FE07EE0DFF8B804006850F00070DFF8F9
:10389000B01408606DB2002D02D0012D06D00BE0EF
:1038A0004FF440710C20FFF70FFC06E04FF440711D
:1038B0000D20FFF709FC00E063E062E0DFF884041C
:1038C000006850F08070DFF87C1408606DB2002D45
:1038D00002D0012D06D00BE04FF440710A20FFF713
:1038E000F3FB06E04FF440710B20FFF7EDFB00E027
:1038F00047E046E0DFF84C04006850F00070DFF865
:10390000441408606DB2002D0BD0022D15D00ED3DB
:10391000042D1ED017D3062D27D020D3072D2AD053
:103920002EE04FF4C0618520FFF7CEFB28E04FF476
:10393000C0618620FFF7C8FB22E04FF4C0618720FA
:10394000FFF7C2FB1CE04FF4C0618820FFF7BCFB0F
:1039500016E04FF4C0618920FFF7B6FB10E04FF48A
:10396000C0618A20FFF7B0FB0AE04FF4C0618B20F2
:10397000FFF7AAFB04E04FF4C0618C20FFF7A4FB23
:10398000FFE731BD2DE9F84F04000D0016001F00C0
:1039900064B2002C11D064B2012C02D064B2022CAB
:1039A00002D16DB2022D08DB64B2032C05D040F2C7
:1039B0008511DFF89403FFF7F4FB290049B22000DA
:1039C00040B2FFF709FFDFF8840300684FF47A7113
:1039D000484380465FEA1840B0FBF6F0814600207D
:1039E00082461FFA89F959FA0AF0012802DB1AF116
:1039F000010AF6E75FFA8AFABAF1080F05DB4FF41D
:103A0000D071DFF84403FFF7CCFB38FA0AF0B0FBC3
:103A1000F6F0814664B2DFF838031FFA89F940F8FE
:103A2000249064B2002C05D0022C19D00DD3032CA5
:103A300021D02BE01FFA89F919F1010000FB07F0F2
:103A40006421B0FBF1F0834620E01FFA89F919F1F7
:103A5000010000FB07F06421B0FBF1F0834615E0A4
:103A60001FFA89F919F1010000FB07F06421B0FB8E
:103A7000F1F083460AE01FFA89F919F1010000FB11
:103A800007F06421B0FBF1F08346FFE76DB264B24A
:103A9000DFF8C00250F8240010EBC5006DB264B22C
:103AA000DFF8B01251F8241011EBC501C96831F0EC
:103AB0000401C1606DB264B2DFF8980250F82400CE
:103AC00010EBC5002821C16064B2DFF8880250F80D
:103AD00024005FFA8AFA1AF0070151F00801016028
:103AE00064B2DFF8700250F824001FFA89F9C0F8B8
:103AF000089064B2DFF85C0250F824000021C16431
:103B00006DB264B2DFF84C0250F8240010EBC5002F
:103B10001FFA8BFBC0F810B064B2DFF8380250F81F
:103B2000240000214160BDE8F18F2DE9F04104003F
:103B30000D0016005FF0000864B2002C11D064B2D2
:103B4000012C02D064B2022C02D16DB2022D08DB2E
:103B500064B2032C05D04FF4F371DFF8EC01FFF7EA
:103B600020FB64B2002C05D0022C15D00BD3032C03
:103B70001BD023E0652E05D34FF4F671DFF8C801A2
:103B8000FFF70FFB1AE0652E05D34FF4F871DFF84D
:103B9000B801FFF706FB11E0652E05D34FF4FA716B
:103BA000DFF8A401FFF7FDFA08E0652E05D340F227
:103BB000F911DFF89401FFF7F4FAFFE764B2DFF8D8
:103BC000900150F82400804664B2002C05D0022CED
:103BD00015D00BD3032C1BD023E018F1010000FB00
:103BE00006F06421B0FBF1F007001AE018F10100C3
:103BF00000FB06F06421B0FBF1F0070011E018F1C2
:103C0000010000FB06F06421B0FBF1F0070008E0C2
:103C100018F1010000FB06F06421B0FBF1F0070091
:103C2000FFE76DB264B2DFF82C0150F8240010EB0E
:103C3000C5000761BDE8F08110B5040064B2012C35
:103C400007D064B2022C04D040F2DB213E48FFF7DB
:103C5000A8FA64B22000012802D0022811D021E085
:103C60003748006850F00070354908604FF4E06153
:103C70000C20FFF729FA4FF4E0610D20FFF724FA3A
:103C800015E03048006850F080702E4908604FF40D
:103C9000C0610A20FFF718FA4FF4C0610B20FFF74C
:103CA00013FA04E040F213312748FFF77AFA64B2BE
:103CB000284850F82400406D50F0040064B22549B3
:103CC00051F82410486564B2224850F82400D0F816
:103CD000800050F0080064B21E4951F82410C1F869
:103CE000800064B21B4850F824000021C16464B213
:103CF000184850F824004FF6FF71816064B21548EF
:103D000050F82400D0F8800050F0010064B211494E
:103D100051F82410C1F8800064B20E4850F8240015
:103D2000406D50F0010064B20A4951F82410486512
:103D300064B2084850F824000021416010BD000022
:103D40003C8004403080044098720000884AFF1F85
:103D5000000FFF1F180BFF1F10B504002000C0B29A
:103D600000F0CEFA10BD2DE9F041040088461500A0
:103D70002F00E4B27B2C03DB0020040018F10108C3
:103D80004146C9B22000C0B200F0A3FA00200600EC
:103D9000F6B2082E0ADAF6B2FFB2DFF89C0410EB96
:103DA0000710305C00F04AFA761CF1E718F10101C7
:103DB000C9B22000C0B200F08CFA08200600F6B2AA
:103DC000102E0ADAF6B2FFB2DFF86C0410EB07101F
:103DD000305C00F033FA761CF1E7BDE8F0812DE9A4
:103DE000F0410400884615002F00E4B27B2C03DB71
:103DF0000020040018F101084146C9B22000C0B2F9
:103E000000F067FA00200600F6B2082E0CDAF6B2CF
:103E1000FFB2DFF8240410EB0710305CC043C0B2DF
:103E200000F00CFA761CEFE718F10101C9B220008E
:103E3000C0B200F04EFA08200600F6B2102E0CDADE
:103E4000F6B2FFB2DFF8F00310EB0710305CC043AE
:103E5000C0B200F0F3F9761CEFE7BDE8F0812DE980
:103E6000F84304000D001600002080465FFA88F831
:103E700018F9060000283CD05FFA88F818F8060008
:103E80008146E4B2792C02DB00200400AD1C29003D
:103E9000C9B22000C0B200F01CFA00200700FFB237
:103EA000082F0BDAFFB25FFA89F9DFF88C0310EB09
:103EB0000910385C00F0C2F97F1CF0E7691CC9B238
:103EC0002000C0B200F005FA08200700FFB2102F52
:103ED0000BDAFFB25FFA89F9DFF85C0310EB091027
:103EE000385C00F0ABF97F1CF0E7083418F10108EA
:103EF000BCE7BDE8F1832DE9F84304000D0016008E
:103F0000002080465FFA88F818F90600002840D0A3
:103F10005FFA88F818F806008146E4B2792C02DBD3
:103F200000200400AD1C2900C9B22000C0B200F07E
:103F3000D0F900200700FFB2082F0DDAFFB25FFAB8
:103F400089F9DFF8F40210EB0910385CC043C0B205
:103F500000F074F97F1CEEE7691CC9B22000C0B202
:103F600000F0B7F908200700FFB2102F0DDAFFB2FA
:103F70005FFA89F9DFF8C00210EB0910385CC04322
:103F8000C0B200F05BF97F1CEEE7083418F10108BD
:103F9000B8E7BDE8F1832DE9F84F04000D001600E5
:103FA00036B2002E0AD52D222900C9B22000C0B297
:103FB000FFF7D9FE36B27042834607E02B22290074
:103FC000C9B22000C0B2FFF7CEFEB3461FFA8BFB8A
:103FD00042F210709BFBF0F081461FFA8BFB42F21D
:103FE00010709BFBF0F100FB11B04FF47A7190FB65
:103FF000F1F082461FFA8BFB4FF47A709BFBF0F1D5
:1040000000FB11B0642190FBF1F0ADF800001FFA45
:104010008BFB64209BFBF0F100FB11B00A2190FBAD
:10402000F1F007001FFA8BFB0A209BFBF0F100FB6D
:1040300011B0804619F1300252B22900C9B214F110
:104040000800C0B2FFF78FFE1AF1300252B2290009
:10405000C9B214F11000C0B2FFF785FEBDF8000030
:1040600010F1300252B22900C9B214F11800C0B2E6
:10407000FFF779FE17F1300252B22900C9B214F1EC
:104080002000C0B2FFF76FFE18F1300252B22900D3
:10409000C9B214F12800C0B2FFF765FEBDE8F18F88
:1040A0002DE9F84F82B004000D00160036B2002E44
:1040B0000AD52D222900C9B22000C0B2FFF753FE55
:1040C00036B27042834607E02B222900C9B2200095
:1040D000C0B2FFF748FEB3461FFA8BFB42F21070E6
:1040E0009BFBF0F081461FFA8BFB42F210709BFBAA
:1040F000F0F100FB11B04FF47A7190FBF1F08246C1
:104100001FFA8BFB4FF47A709BFBF0F100FB11B0B0
:10411000642190FBF1F0ADF800001FFA8BFB6420E6
:104120009BFBF0F100FB11B00A2190FBF1F00700BE
:104130001FFA8BFB0A209BFBF0F100FB11B08046BD
:1041400019F1300252B22900C9B214F10800C0B20C
:10415000FFF709FE1AF1300252B22900C9B214F178
:104160001000C0B2FFF7FFFDBDF8000010F13002F3
:1041700052B22900C9B214F11800C0B2FFF7F3FD22
:1041800017F1300252B22900C9B214F12000C0B2B6
:10419000FFF7E9FD18F1300252B22900C9B214F15B
:1041A0002800C0B2FFF7DFFD9DF90800012807D005
:1041B0003FD303281AD00ED305282FD023D338E0BD
:1041C00019F1300252B22900C9B214F10800C0B28C
:1041D000FFF705FE2DE01AF1300252B22900C9B2F4
:1041E00014F11000C0B2FFF7FAFD22E0BDF80000A4
:1041F00010F1300252B22900C9B214F11800C0B255
:10420000FFF7EDFD15E017F1300252B22900C9B2F7
:1042100014F12000C0B2FFF7E2FD0AE018F130020D
:1042200052B22900C9B214F12800C0B2FFF7D7FD7D
:10423000FFE7BDE8F78F0000602200000821DFF8EB
:10424000A42401231360DFF8A024002313600A00D4
:10425000511ED2B2002A15D0020604D5DFF88C24F4
:104260000123136003E0DFF8842400231360DFF8E8
:1042700078240123136000BFDFF86C24002313604F
:104280004000E4E7704700000821DFF858240023CD
:104290001360DFF85424002313600A00511ED2B2C9
:1042A000002A15D0020604D5DFF84024012313604C
:1042B00003E0DFF8382400231360DFF82C24012307
:1042C000136000BFDFF82024002313604000E4E700
:1042D000704738B504000D00B5F15000C0B2FFF7CB
:1042E000D3FFE4B2200950F01000C0B2FFF7CCFFBA
:1042F00014F00F0050F00100C0B2FFF7C5FF31BD50
:1043000070B5040000200500EDB2082D17DAB5F1F4
:104310005000C0B2FFF7B8FF0120FFF7B5FF102033
:10432000FFF7B2FF00200600F6B2802E05DA20006B
:10433000C0B2FFF783FF761CF6E76D1CE4E770BDA3
:10434000002808D040F2375211000A00511E002AFE
:10435000FBD1401EF4E7704710B504002020FFF7A2
:1043600093FF2000C0B2FFF78FFF10BD10B504000F
:1043700054F04000C0B2FFF787FF10BD10B5040035
:104380008120FFF781FF2000C0B2FFF77DFF10BD45
:1043900010B504008D20FFF777FF54F01000C0B275
:1043A000FFF772FF10BD10B5040054F0A000C0B2BA
:1043B000FFF76AFF10BD10B5040054F0A400C0B2AE
:1043C000FFF762FF10BD10B5040054F0A600C0B2A4
:1043D000FFF75AFF10BD10B50400A820FFF754FFE7
:1043E0002000C0B2FFF750FF10BD10B5040054F01C
:1043F000AE00C0B2FFF748FF10BD10B5040054F086
:10440000C000C0B2FFF740FF10BD10B50400D320BC
:10441000FFF73AFF2000C0B2FFF736FF10BD10B51E
:104420000400D520FFF730FF2000C0B2FFF72CFFBB
:1044300010BD10B50400D920FFF726FF2000C0B240
:10444000FFF722FF10BD10B50400DA20FFF71CFFB4
:1044500054F00200C0B2FFF717FF10BD10B5040002
:10446000DB20FFF711FF2000C0B2FFF70DFF10BDEA
:1044700080B5012201218920FFF71AF901220121CB
:104480008820FFF715F9012201218720FFF710F995
:10449000012201218620FFF70BF9DFF84C020121F0
:1044A0000160DFF84C02002101603220FFF748FF75
:1044B000DFF83C02012101600020FFF796FF802019
:1044C000FFF7ADFF3F20FFF786FF0020FFF79DFFBE
:1044D0000020FFF74BFF0420FFF75AFF0220FFF7F1
:1044E0003BFF0120FFF75FFF0820FFF786FF10204A
:1044F000FFF7A9FFCF20FFF741FFF120FFF799FF5A
:104500004020FFF7ABFF0020FFF755FF0020FFF72B
:104510005AFF0120FFF769FF0020FFF7F1FE00219D
:104520000020FFF7D6FE01BD2DE9F74F1C000C9DC2
:1045300000200600782E17DA00200700A02F11DADD
:104540007F2000FB07F09F2190FBF1F08021694A5A
:1045500001FB0621A022684B02FB0632BA5C4254E2
:104560007F1CEBE7761CE5E700200600782E17DAC3
:1045700000200700802F11DA3F2000FB06F0772192
:1045800090FBF1F080215B4A01FB00208021594A19
:1045900001FB0621795C39547F1CEBE7761CE5E7CB
:1045A00000200600082E25DA00200700802F1FDAE1
:1045B00000208046B8F1080F18DA802000FB067052
:1045C0004E49405C80214FF480624A4B02FB063228
:1045D00001FB0821795C11FA08F10818802101FB20
:1045E0000671464A885418F10108E3E77F1CDDE7AD
:1045F000761CD7E700200600082E1BDA80203F49F2
:1046000000FB061090F83F00C04380213B4A01FBAD
:10461000062181F83F008020384900FB061090F801
:104620003F00C0438021354A01FB062181F840004C
:10463000761CE1E700200600802E15DA2F4830189E
:1046400090F8800190F080002C49711881F8800169
:104650002A48301890F8000290F00100274971189C
:1046600081F80002761CE7E75FF00009E4B2082059
:1046700094FBF0F101FB1041002905D1E4B20820C0
:1046800094FBF0F0834605E0E4B2082094FBF0F0E0
:10469000401C83469DF804008346E4B25FFA8BFB1E
:1046A0005C451DD35946C9B29DF80000FFF711FEC5
:1046B0009DF8000082469DF808005FFA8AFA50458E
:1046C0000BD319F80500FFF7B9FD002009F8050024
:1046D00019F101091AF1010AEDE71BF1010BDCE701
:1046E000BDE8F78F1820FE432420FE432020FE4320
:1046F0001C20FE43802AFF1FC013FF1F8026FF1FC0
:104700002DE9FF4FABB0399D3B9E3C9C01275FF0EC
:1047100001085FF000095FF0000A5FF0000B2C98C1
:10472000B0F90000ADF800002E980088ADF8020046
:104730002888ADF804003088ADF806002B9902A84F
:1047400000F02CFA2D990CA800F028FA389916A838
:1047500000F024FA3A9920A800F020FA0020FFF790
:10476000FBFA02AA00210020FFF779FBBDF9002027
:1047700000215020FFF70FFC0CAA02210020FFF7B8
:104780006EFBBDF9022002215020FFF704FC16AA9F
:1047900004210020FFF763FBBDF904200421502011
:1047A000FFF7F9FB20AA06210020FFF758FBBDF90F
:1047B000062006215020FFF7EEFB7FB2282002A939
:1047C00017FB0010B0F12802781EC0B24100C9B238
:1047D0000020FFF790FB4FFA89F9B9F1000F40F084
:1047E000C98100F0EFFA8246002000F0EEFA4FFA9D
:1047F0008BFBBBF1000F40F082804FFA8AFABAF1CE
:10480000010F09D07AD3BAF1030F4DD028D3BAF1F2
:10481000050F51D04CD371E07FB2282002A917FBBD
:104820000010B0F12802781EC0B24100C9B20020C9
:10483000FFF715FB7FB2022F01DB7F1E01E0042092
:1048400007007FB2282002A917FB0010B0F1280250
:10485000781EC0B24100C9B20020FFF74CFBBAE796
:104860007FB2282002A917FB0010B0F12802781EA1
:10487000C0B24100C9B20020FFF7F1FA7FB2042FA5
:1048800001DA7F1C01E0012007007FB2282002A985
:1048900017FB0010B0F12802781EC0B24100C9B267
:1048A0000020FFF728FB96E7641E0120814692E76F
:1048B000641C012081468EE77FB2282002A917FBE5
:1048C0000010B0F12802781EC0B24100C9B2002029
:1048D000FFF7C5FA0120804643465BB27FB200A8CD
:1048E00010EB470030F9022C781EC0B24100C9B26B
:1048F0005020FFF7D5FB012083466CE76BE74FFAAA
:104900008BFBBBF1010F7FF466AF4FFA8AFABAF165
:10491000010F40D0C0F02D81BAF1030F07D0C0F0D5
:10492000A280BAF1050F00F006811AD321E14FFAF7
:1049300088F8B8F1020F02DBB8F1010801E00520A8
:10494000804643465BB27FB200A810EB470030F9C7
:10495000022C781EC0B24100C9B25020FFF7A0FB64
:1049600039E74FFA88F8B8F1050F02DA18F10108B3
:1049700001E00120804643465BB27FB200A810EB05
:10498000470030F9022C781EC0B24100C9B2502055
:10499000FFF786FB1FE74FFA88F8B8F1010F09D03F
:1049A00051D3B8F1030F24D014D3B8F1050F3CD084
:1049B0002DD348E07FB200A810EB470030F8020C7E
:1049C00000F51C5010307FB200A911EB470121F80F
:1049D000020C38E07FB200A810EB470030F8020C60
:1049E00010F57A707FB200A911EB470121F8020C93
:1049F00029E07FB200A810EB470030F8020C6430C9
:104A00007FB200A911EB470121F8020C1BE07FB235
:104A100000A810EB470030F8020C0A307FB200A962
:104A200011EB470121F8020C0DE07FB200A810EB5A
:104A3000470030F8020C401C7FB200A911EB47017F
:104A400021F8020CFFE743465BB27FB200A810EBEF
:104A5000470030F9022C781EC0B24100C9B2502084
:104A6000FFF71EFBB7E64FFA88F8B8F1010F09D03F
:104A700051D3B8F1030F24D014D3B8F1050F3CD0B3
:104A80002DD348E07FB200A810EB470030F8020CAD
:104A900042F21071401A7FB200A911EB470121F8D0
:104AA000020C38E07FB200A810EB470030F8020C8F
:104AB000B0F57A707FB200A911EB470121F8020C22
:104AC00029E07FB200A810EB470030F8020C6438F0
:104AD0007FB200A911EB470121F8020C1BE07FB265
:104AE00000A810EB470030F8020C0A387FB200A98A
:104AF00011EB470121F8020C0DE07FB200A810EB8A
:104B0000470030F8020C401E7FB200A911EB4701AC
:104B100021F8020CFFE743465BB27FB200A810EB1E
:104B2000470030F9022C781EC0B24100C9B25020B3
:104B3000FFF7B6FA4FE67FB200A810EB470030F956
:104B4000022C781EC0B24100C9B25020FFF723FAF0
:104B50007FB2282002A917FB0010B0F12802781EAE
:104B6000C0B24100C9B20020FFF7C5F9002083465A
:104B700031E630E62C98BDF8001001802E98BDF883
:104B800002100180BDF804002880BDF806003080C6
:104B90002000C0B22FB0BDE8F08F00005FEA000C2B
:104BA000830706D011F8013B00F8013BB3B183073E
:104BB000F8D10A68B2F1013323EA020313F0803F0F
:104BC00002BF40F8042B51F8042FF3E711F8013B22
:104BD00000F8013B13B111F8013BF9E7604670475B
:104BE00080B57B496A20FEF76FFA01BDF8B5002455
:104BF00000250026002700F065F80600B6B240F652
:104C00007460864204DBB6B241F26900864200DB82
:104C10003FE000F03FF80600B6B240F6746086420E
:104C200004DBB6B241F26900864200DB31E00020CD
:104C30000400E4B2032C20DA00200500EDB2082DB8
:104C400016DA00F03FF8060000F024F80600B6B2CD
:104C5000B6F5617F06DDB6B2B6F5966F02DAFFB241
:104C60007F0803E0FFB27F0857F080076D1CE5E77F
:104C7000E4B258482754641CDBE75648407855494D
:104C800089780818544908700A20FEF786FB00F05E
:104C900031F8F1BD10B5022000F0FEF86A20FEF7F1
:104CA0007AFD0028FAD1022000F033F94B49096857
:104CB0004FF47A7291FBF2F1B0FBF1F004002000A6
:104CC00080B210BD10B5022000F0E6F86A20FEF7B1
:104CD00062FD0028FAD0022000F01BF93F49096864
:104CE0004FF47A7291FBF2F1B0FBF1F00400200076
:104CF00080B210BD80B538480078B0281DD1384842
:104D00004078C0433649487035484078002858D12B
:104D1000002204210020FEF708FF002205210020C8
:104D2000FEF703FF002206210020FEF7FEFE002210
:104D300007210020FEF7F9FE43E0274800787B2892
:104D400005D127488078C0432549887039E022483A
:104D50000078512805D122480078C04320490870C6
:104D60002FE01D4800786E2803D11E4801210170F4
:104D700027E019480078D22803D11A48052101708C
:104D80001FE0154800789B2803D1164803210170C5
:104D900017E011480078232803D11248042101703C
:104DA0000FE00D480078E62803D10E48022101707B
:104DB00007E009480078B72803D10A4801210170AB
:104DC000FFE701BD07480078704706490870704743
:104DD00013010A00F80EFF1F0055FF1F884AFF1F2E
:104DE000FC0EFF1F0155FF1F38B504000D00002DFC
:104DF00003D145216048FEF7D4F96048006850F4BB
:104E000000005E4908605E480068800880005C49D8
:104E1000086064B25B4810EB0410806840084000F2
:104E200064B2584911EB0411886064B220015549FD
:104E30006A1E425064B2534810EB0410C06850F030
:104E4000010064B24F4911EB0411C86064B24D48CF
:104E500010EB041080684008400064B2494911EB2F
:104E60000411886064B2474810EB0410012181608E
:104E700064B2444810EB0410C068C007F8D564B2AF
:104E8000404810EB0410C06850F0010064B23D4986
:104E900011EB0411C86031BD3849096851F40001B3
:104EA000364A11603649096889088900344A116018
:104EB00040B2344911EB001189684908490040B2F9
:104EC000304A12EB0012916040B201012D4A5FF0AE
:104ED000FF338B5040B22B4911EB0011C96851F0E0
:104EE000010140B2274A12EB0012D16040B22549BD
:104EF00011EB001189684908490040B2214A12EBC0
:104F00000012916040B21F4911EB001101228A602A
:104F1000704701005FF0FF3049B21A4B13EB0113E9
:104F20005B68C01A020049B2164810EB0110C06855
:104F3000C0071AD549B2134810EB0110C06850F0F1
:104F4000010049B20F4B13EB0113D86049B20D4871
:104F500010EB011080684008400049B2094B13EB88
:104F6000011398605FF0FF3004E012F1010F00D1EF
:104F7000521E100070470000107300003C80044077
:104F80000070034000710340DFF800F0550DFF1F73
:104F900080B5864800F004F8844800F04FF801BD61
:104FA0005FF47F2109680180814909684180814956
:104FB0000968818080490968C18080490968018148
:104FC0007F49096841817F49096881817E49096873
:104FD000C1817E49096801827D49096841827D4914
:104FE000096881827C490968C1827C49096801831A
:104FF0007B49096841837B49096881837A4909684B
:10500000C1837A49096801847949096841847949E9
:105010000968818478490968C184784909680185EB
:105020007749096841857749096881857649096822
:10503000C1855FF47E2109680186704710B50400C0
:10504000724821880180608871490880A088714970
:105050000880E0887049088020897049088060894C
:105060006F490880A0896F490880E0896E490880EF
:10507000208A6E490880608A6D490880A08A6D493F
:105080000880E08A6C490880B4F91800FCF71AFB24
:105090006A4A6B4BFCF70AF900F0A4F96949086009
:1050A000B4F91A00FCF70EFB644A654BFCF7FEF8F6
:1050B00000F098F964490860B4F91C00FCF702FBA1
:1050C0005E4A5F4BFCF7F2F800F08CF95F4908602C
:1050D000B4F91E00FCF7F6FA584A594BFCF7E6F80B
:1050E00000F080F95A490860B4F92000FCF7EAFAA8
:1050F000524A534BFCF7DAF800F074F9554908604E
:10510000B4F92200FCF7DEFA4C4A4D4BFCF7CEF81E
:1051100000F068F950490860B4F92400FCF7D2FAAD
:10512000464A474BFCF7C2F800F05CF94B4908606F
:10513000B4F92600FCF7C6FA404A414BFCF7B6F832
:1051400000F050F946490860B4F92800FCF7BAFAB3
:105150003A4A3B4BFCF7AAF800F044F94149086091
:10516000B4F92A00FCF7AEFA344A354BFCF79EF846
:1051700000F038F93C490860B4F92C00FCF7A2FAB9
:105180002E4A2F4BFCF792F800F02CF937490860B3
:10519000B4F92E00FCF796FA284A294BFCF786F85A
:1051A00000F020F93249086010BD0000940EFF1F86
:1051B00004F00F0008F00F000CF00F0010F00F00CB
:1051C00014F00F0018F00F001CF00F0020F00F007B
:1051D00024F00F0028F00F002CF00F0030F00F002B
:1051E00034F00F0038F00F003CF00F0040F00F00DB
:1051F00044F00F0048F00F004CF00F0050F00F008B
:1052000054F00F0058F00F005CF00F00E854FF1F3F
:10521000EA54FF1FEC54FF1FEE54FF1FF054FF1F12
:10522000F254FF1FF454FF1FF654FF1FF854FF1FE2
:10523000FA54FF1FFC54FF1FFE54FF1F7B14AE47A0
:10524000E17A843FC80EFF1FCC0EFF1FD00EFF1F58
:10525000D40EFF1FD80EFF1FDC0EFF1FE00EFF1F36
:10526000E40EFF1FE80EFF1FEC0EFF1FF00EFF1FE6
:10527000F40EFF1F10B50400FF20FDF77DFFFE2098
:10528000FDF77AFFB4F90020D3170021FF20FFF7C4
:105290007BFEB4F90220D3170421FF20FFF774FE30
:1052A000B4F90420D3170821FF20FFF76DFEB4F9ED
:1052B0000620D3170C21FF20FFF766FEB4F9082063
:1052C000D3171021FF20FFF75FFEB4F90A20D31790
:1052D0001421FF20FFF758FEB4F90C20D317182132
:1052E000FF20FFF751FEB4F90E20D3171C21FF2039
:1052F000FFF74AFEB4F91020D3172021FF20FFF753
:1053000043FEB4F91220D3172421FF20FFF73CFEFF
:10531000B4F91420D3172821FF20FFF735FEB4F984
:105320001620D3172C21FF20FFF72EFEB4F91820EA
:10533000D3173021FF20FFF727FEB4F91A20D31727
:105340003421FF20FFF720FEB4F91C20D3173821A9
:10535000FF20FFF719FEB4F91E20D3173C21FF20D0
:10536000FFF712FEB4F92020D3174021FF20FFF7EA
:105370000BFEB4F92220D3174421FF20FFF704FECF
:10538000B4F92420D3174821FF20FFF7FDFDB4F91D
:105390002620D3174C21FF20FFF7F6FDB4F9282073
:1053A000D3175021FF20FFF7EFFDB4F92A20D317C0
:1053B0005421FF20FFF7E8FDB4F92C20D317582122
:1053C000FF20FFF7E1FDB4F92E20D3175C21FF2069
:1053D000FFF7DAFDB4F93020D3170021FE20FFF7E4
:1053E000D3FD10BD4FEAF17CBCF1E04C2CBFBCF505
:1053F000001F11E05FEA4C0C34BFBCF17F5F2EE070
:105400005FEA9C0C4FEA0C1C4FEA3C0CC10071F1A6
:1054100000414CEB50707047C90241EA5051C00244
:1054200018BF41F0010141F000414FEA6C50C0F15A
:105430000900212810D240EACC7CCCF1200C11FAD2
:105440000CF070F10040CCF1200C21FA0CF00CF0C3
:10545000004C40EB0C0070474FEACC70704749009D
:1054600011F5001F04D84FEACC10FF30C00570477B
:10547000C8177047DFF800F0450EFF1F40B2DFF895
:10548000981331F8201040B20128C0F26B8140B26D
:10549000162880F26781DFF884230023137089B215
:1054A0003D2904DADFF874230023537078E089B2D1
:1054B000792904DADFF864230123537070E089B29C
:1054C000B52904DADFF854230223537068E089B267
:1054D000F12904DADFF844230323537060E089B232
:1054E000B1F5967F04DCDFF834230423537057E0D2
:1054F00089B2B1F5B47F04DCDFF8202305235370B3
:105500004EE089B2B1F5D27F04DCDFF81023062328
:10551000537045E089B2B1F5F07F04DCDFF8FC227E
:10552000072353703CE089B2B1F5077F04DCDFF854
:10553000EC220823537033E089B2B1F5167F04DC06
:10554000DFF8D822092353702AE089B2B1F5257F0C
:1055500003DCB24A0A23537022E089B2B1F5347FEA
:1055600003DCAE4A0B2353701AE089B2B1F5437FD6
:1055700003DCAA4A0C23537012E089B2B1F5527FC2
:1055800003DCA64A0D2353700AE089B2B1F5617FAE
:1055900003DCA24A0E23537002E0A04A0F2353708B
:1055A00089B21A2903DA9D4A0023937069E089B20F
:1055B000332903DA994A0123937062E089B24C29B6
:1055C00003DA964A022393705BE089B2652903DA15
:1055D000924A0323937054E089B27E2903DA8F4AFA
:1055E000042393704DE089B2972903DA8B4A05238F
:1055F000937046E089B2B02903DA884A0623937093
:105600003FE089B2C92903DA844A0723937038E05E
:1056100089B2E22903DA814A0823937031E089B222
:10562000FB2903DA7D4A092393702AE089B2B1F598
:105630008A7F03DA794A0A23937022E089B2B1F5AE
:10564000967F03DC754A0B2393701AE089B2B1F59B
:10565000A37F03DA714A0C23937012E089B2B1F58B
:10566000AF7F03DC6D4A0D2393700AE089B2B1F578
:10567000BC7F03DA694A0E23937002E0674A0F2366
:10568000937089B21A2903DA644A0023D37069E05F
:1056900089B2332903DA614A0123D37062E089B207
:1056A0004C2903DA5D4A0223D3705BE089B2652995
:1056B00003DA5A4A0323D37054E089B27E2903DA0D
:1056C000564A0423D3704DE089B2972903DA534A2E
:1056D0000523D37046E089B2B02903DA4F4A062386
:1056E000D3703FE089B2C92903DA4C4A0723D3704B
:1056F00038E089B2E22903DA484A0823D37031E05E
:1057000089B2FB2903DA454A0923D3702AE089B21A
:10571000B1F58A7F03DA414A0A23D37022E089B2C5
:10572000B1F5967F03DC3D4A0B23D3701AE089B2B2
:10573000B1F5A37F03DA394A0C23D37012E089B2A2
:10574000B1F5AF7F03DC354A0D23D3700AE089B28F
:10575000B1F5BC7F03DA314A0E23D37002E02F4A41
:105760000F23D370704710B50400200040B2FFF73C
:1057700085FE2B48007810F0FD0029490870284864
:10578000007850F01000264908702648B8210170B2
:1057900025480078C006FBD423480078C0F3810078
:1057A000C0B20228F8D11D48C3781C4882781B4833
:1057B00041781A480078FFF75DFE64B2164810EB96
:1057C0008400807810F007001849087064B212480D
:1057D00010EB8400C07810F01F0050F04000144916
:1057E0000870114800788006FBD50F480078400605
:1057F000FBD50C48007810F03F000A4908700A48B1
:105800000078C0F38100C0B20328F8D164B2024826
:1058100030F82400C0B210BD3C0BFF1F940BFF1FDB
:105820000140064000400640064006400440064055
:105830000540064080B5DFF85C33002201210020DE
:10584000FDF706F9002201219C20FDF731FF00221F
:1058500000219B20FDF72CFFDFF83C139B20FDF778
:1058600055FCDFF83803002101600321232000F0FC
:1058700035F82821252000F031F80F21262000F0EE
:105880002DF80121212000F029F80121222000F02B
:1058900025F80522DFF808132A2000F046F8202119
:1058A000312000F01BF8FF21E22000F017F805225C
:1058B000DFF8F012302000F038F80F21242000F03B
:1058C0000DF8FF21E12000F009F800F092F8DFF870
:1058D000CC020121016000F050F802BD30B583B068
:1058E00004000D008DF804408DF805500220009052
:1058F00001AB01AA01210020FDF745FA9DF8040043
:105900003EBD30B583B004000D008DF80440022088
:10591000009001AB01AA01210020FDF734FA9DF8A7
:10592000050028709DF804003EBD31B584B00C0020
:10593000150003950120029000200190009404AB13
:1059400004AA01210020FDF7A6FA9DF8100005B079
:1059500030BD31B584B00C001500039501200290D4
:1059600001940020009004AB04AA01210020FDF75F
:1059700092FA9DF8100005B030BD10B588B005A8AA
:10598000DFF824120CC90CC00839083830208DF813
:10599000100005200390012002900020019005A82E
:1059A0000090002304AA01210020FDF774FA1020C2
:1059B0008DF81000052003900120029005A80190A9
:1059C00000200090002304AA01210020FDF763FAC3
:1059D00000200400E4B2052C08DAE4B205A8205C3B
:1059E000C22801D0002002E0641CF3E7012008B0C7
:1059F00010BD80B5DFF8A401002101600121212044
:105A0000FFF76CFF01212220FFF768FF0522DFF876
:105A100090112A20FFF789FF0F212020FFF75EFF5A
:105A2000FF212720FFF75AFFFF21E220FFF756FF53
:105A3000DFF8680101210160DFF8700102210170C7
:105A400001BD80B5DFF85401002101600522DFF8B7
:105A500054113020FFF769FF0522DFF844112A2096
:105A6000FFF763FF0E212020FFF738FF4B4801218D
:105A700001604E480121017040F6FF7000900098CF
:105A8000411E00910028FAD101BD10B582B000A9D5
:105A90000720FFF736FF9DF800102720FFF71EFFB5
:105AA0009DF80000400632D53C4800210160404886
:105AB0000078022824D02022404800783E4911EB8B
:105AC00040116120FFF745FF3C480078401C3B49EE
:105AD00008703A480078502802DB384800210170ED
:105AE00034480078040035480078E4B2A04203D17D
:105AF0002F480221017007E02D480121017003E0C9
:105B0000FF21E220FFF7EAFE2448012101609DF811
:105B10000000800629D52C480068002809D12948B2
:105B2000002101602148007802281ED0FFF761FFA4
:105B30001BE01E480078012801D0FFF782FF2148B2
:105B4000006820301F4908601F480068401E1E4939
:105B5000086012480021016020221A480168A02034
:105B6000FFF7E3FE0D48012101609DF80000C0062B
:105B70000ED5134801210170FF21E120FFF7AEFE91
:105B8000104800210160104800210160FFF731FF3B
:105B900013BD000020BCBE0003000A007020FE43BD
:105BA000F00BFF1FE80BFF1F887600000355FF1F57
:105BB0000655FF1F0455FF1F8C4AFF1F0555FF1F89
:105BC0000755FF1F8C54FF1F9054FF1F01B4BDF8F1
:105BD0000000002805D0BDF80000401EADF8000010
:105BE000F5E701B0704780B5012201212820FDF7BB
:105BF0005FFD012201212920FDF75AFD23212820E4
:105C0000FDF784FA23212920FDF780FA01BD80B534
:105C10007A48012101607A48012101604FF4C8707F
:105C2000FFF7D4FF7748002101607748006800281B
:105C300004D1744801210160002016E0714801215F
:105C400001606E48002101604FF4C870FFF7BEFF8D
:105C50006B48002101606C480068002804D0694846
:105C600001210160002000E0012002BD80B56448F0
:105C7000002101606148002101604FF4C870FFF706
:105C8000A5FF5F48012101604FF4C870FFF79EFF38
:105C90005A48012101604FF4C870FFF797FF01BD1A
:105CA00080B55748002101604FF4C870FFF78EFFA0
:105CB0005248002101604FF4C870FFF787FF504839
:105CC000012101604FF4C870FFF780FF4C480021AC
:105CD00001604FF4C870FFF779FF01BD80B54848F7
:105CE000002101604FF4C870FFF770FF43480121A5
:105CF00001604FF4C870FFF769FF4148012101605E
:105D00004FF4C870FFF762FF3D48002101604FF477
:105D1000C870FFF75BFF01BD80B539480021016005
:105D20003848002101604FF4C870FFF74FFF344836
:105D3000012101604FF4C870FFF748FF3248006846
:105D4000002807D02F48012101602D480021016063
:105D5000002006E02B480121016029480021016054
:105D6000012002BD38B5050008242000441EC0B241
:105D7000002818D0280603D520480121016002E040
:105D80001E48002101606D004FF4C870FFF71EFF30
:105D90001B48012101604FF4C870FFF717FF184836
:105DA00000210160E1E731BD38B508240025154820
:105DB000002101602000441EC0B2002815D06D00F3
:105DC0000F48002101604FF4C870FFF7FFFE0C4838
:105DD000012101604FF4C870FFF7F8FE0A4800681F
:105DE0000028E7D055F00105E4E7064801210160ED
:105DF000034800210160EDB2280032BD2408FE43B3
:105E00002008FE43A40AFE43240AFE4370B50400A2
:105E10000D0000262900C9B2200080B200F00AF867
:105E2000002805D1761CF6B2142EF3D1002000E034
:105E3000012070BD38B504000D00FFF7E8FE002812
:105E400001D1002019E04220FFF78CFFFFF764FF2B
:105E5000002803D1FFF70AFF00200EE02000C0B2A7
:105E6000FFF780FFFFF758FF2800C0B2FFF77AFF67
:105E7000FFF752FFFFF7FAFE012032BDF8B504002C
:105E80000D00160000273200D2B2290089B220008E
